{
  "contractName": "BountiesMetaTxRelayer",
  "abi": [
    {
      "inputs": [
        {
          "internalType": "address",
          "name": "_contract",
          "type": "address"
        }
      ],
      "payable": false,
      "stateMutability": "nonpayable",
      "type": "constructor"
    },
    {
      "constant": true,
      "inputs": [],
      "name": "bountiesContract",
      "outputs": [
        {
          "internalType": "contract StandardBounties",
          "name": "",
          "type": "address"
        }
      ],
      "payable": false,
      "stateMutability": "view",
      "type": "function"
    },
    {
      "constant": true,
      "inputs": [
        {
          "internalType": "address",
          "name": "",
          "type": "address"
        }
      ],
      "name": "replayNonce",
      "outputs": [
        {
          "internalType": "uint256",
          "name": "",
          "type": "uint256"
        }
      ],
      "payable": false,
      "stateMutability": "view",
      "type": "function"
    },
    {
      "constant": false,
      "inputs": [
        {
          "internalType": "bytes",
          "name": "signature",
          "type": "bytes"
        },
        {
          "internalType": "address payable[]",
          "name": "_issuers",
          "type": "address[]"
        },
        {
          "internalType": "address[]",
          "name": "_approvers",
          "type": "address[]"
        },
        {
          "internalType": "string",
          "name": "_data",
          "type": "string"
        },
        {
          "internalType": "uint256",
          "name": "_deadline",
          "type": "uint256"
        },
        {
          "internalType": "address",
          "name": "_token",
          "type": "address"
        },
        {
          "internalType": "uint256",
          "name": "_tokenVersion",
          "type": "uint256"
        },
        {
          "internalType": "uint256",
          "name": "_nonce",
          "type": "uint256"
        }
      ],
      "name": "metaIssueBounty",
      "outputs": [
        {
          "internalType": "uint256",
          "name": "",
          "type": "uint256"
        }
      ],
      "payable": false,
      "stateMutability": "nonpayable",
      "type": "function"
    },
    {
      "constant": false,
      "inputs": [
        {
          "internalType": "bytes",
          "name": "signature",
          "type": "bytes"
        },
        {
          "internalType": "address payable[]",
          "name": "_issuers",
          "type": "address[]"
        },
        {
          "internalType": "address[]",
          "name": "_approvers",
          "type": "address[]"
        },
        {
          "internalType": "string",
          "name": "_data",
          "type": "string"
        },
        {
          "internalType": "uint256",
          "name": "_deadline",
          "type": "uint256"
        },
        {
          "internalType": "address",
          "name": "_token",
          "type": "address"
        },
        {
          "internalType": "uint256",
          "name": "_tokenVersion",
          "type": "uint256"
        },
        {
          "internalType": "uint256",
          "name": "_depositAmount",
          "type": "uint256"
        },
        {
          "internalType": "uint256",
          "name": "_nonce",
          "type": "uint256"
        }
      ],
      "name": "metaIssueAndContribute",
      "outputs": [
        {
          "internalType": "uint256",
          "name": "",
          "type": "uint256"
        }
      ],
      "payable": true,
      "stateMutability": "payable",
      "type": "function"
    },
    {
      "constant": false,
      "inputs": [
        {
          "internalType": "bytes",
          "name": "_signature",
          "type": "bytes"
        },
        {
          "internalType": "uint256",
          "name": "_bountyId",
          "type": "uint256"
        },
        {
          "internalType": "uint256",
          "name": "_amount",
          "type": "uint256"
        },
        {
          "internalType": "uint256",
          "name": "_nonce",
          "type": "uint256"
        }
      ],
      "name": "metaContribute",
      "outputs": [],
      "payable": true,
      "stateMutability": "payable",
      "type": "function"
    },
    {
      "constant": false,
      "inputs": [
        {
          "internalType": "bytes",
          "name": "_signature",
          "type": "bytes"
        },
        {
          "internalType": "uint256",
          "name": "_bountyId",
          "type": "uint256"
        },
        {
          "internalType": "uint256",
          "name": "_contributionId",
          "type": "uint256"
        },
        {
          "internalType": "uint256",
          "name": "_nonce",
          "type": "uint256"
        }
      ],
      "name": "metaRefundContribution",
      "outputs": [],
      "payable": false,
      "stateMutability": "nonpayable",
      "type": "function"
    },
    {
      "constant": false,
      "inputs": [
        {
          "internalType": "bytes",
          "name": "_signature",
          "type": "bytes"
        },
        {
          "internalType": "uint256",
          "name": "_bountyId",
          "type": "uint256"
        },
        {
          "internalType": "uint256[]",
          "name": "_contributionIds",
          "type": "uint256[]"
        },
        {
          "internalType": "uint256",
          "name": "_nonce",
          "type": "uint256"
        }
      ],
      "name": "metaRefundMyContributions",
      "outputs": [],
      "payable": false,
      "stateMutability": "nonpayable",
      "type": "function"
    },
    {
      "constant": false,
      "inputs": [
        {
          "internalType": "bytes",
          "name": "_signature",
          "type": "bytes"
        },
        {
          "internalType": "uint256",
          "name": "_bountyId",
          "type": "uint256"
        },
        {
          "internalType": "uint256",
          "name": "_issuerId",
          "type": "uint256"
        },
        {
          "internalType": "uint256[]",
          "name": "_contributionIds",
          "type": "uint256[]"
        },
        {
          "internalType": "uint256",
          "name": "_nonce",
          "type": "uint256"
        }
      ],
      "name": "metaRefundContributions",
      "outputs": [],
      "payable": false,
      "stateMutability": "nonpayable",
      "type": "function"
    },
    {
      "constant": false,
      "inputs": [
        {
          "internalType": "bytes",
          "name": "_signature",
          "type": "bytes"
        },
        {
          "internalType": "uint256",
          "name": "_bountyId",
          "type": "uint256"
        },
        {
          "internalType": "uint256",
          "name": "_issuerId",
          "type": "uint256"
        },
        {
          "internalType": "uint256[]",
          "name": "_amounts",
          "type": "uint256[]"
        },
        {
          "internalType": "uint256",
          "name": "_nonce",
          "type": "uint256"
        }
      ],
      "name": "metaDrainBounty",
      "outputs": [],
      "payable": false,
      "stateMutability": "nonpayable",
      "type": "function"
    },
    {
      "constant": false,
      "inputs": [
        {
          "internalType": "bytes",
          "name": "_signature",
          "type": "bytes"
        },
        {
          "internalType": "uint256",
          "name": "_bountyId",
          "type": "uint256"
        },
        {
          "internalType": "string",
          "name": "_data",
          "type": "string"
        },
        {
          "internalType": "uint256",
          "name": "_nonce",
          "type": "uint256"
        }
      ],
      "name": "metaPerformAction",
      "outputs": [],
      "payable": false,
      "stateMutability": "nonpayable",
      "type": "function"
    },
    {
      "constant": false,
      "inputs": [
        {
          "internalType": "bytes",
          "name": "_signature",
          "type": "bytes"
        },
        {
          "internalType": "uint256",
          "name": "_bountyId",
          "type": "uint256"
        },
        {
          "internalType": "address payable[]",
          "name": "_fulfillers",
          "type": "address[]"
        },
        {
          "internalType": "string",
          "name": "_data",
          "type": "string"
        },
        {
          "internalType": "uint256",
          "name": "_nonce",
          "type": "uint256"
        }
      ],
      "name": "metaFulfillBounty",
      "outputs": [],
      "payable": false,
      "stateMutability": "nonpayable",
      "type": "function"
    },
    {
      "constant": false,
      "inputs": [
        {
          "internalType": "bytes",
          "name": "_signature",
          "type": "bytes"
        },
        {
          "internalType": "uint256",
          "name": "_bountyId",
          "type": "uint256"
        },
        {
          "internalType": "uint256",
          "name": "_fulfillmentId",
          "type": "uint256"
        },
        {
          "internalType": "address payable[]",
          "name": "_fulfillers",
          "type": "address[]"
        },
        {
          "internalType": "string",
          "name": "_data",
          "type": "string"
        },
        {
          "internalType": "uint256",
          "name": "_nonce",
          "type": "uint256"
        }
      ],
      "name": "metaUpdateFulfillment",
      "outputs": [],
      "payable": false,
      "stateMutability": "nonpayable",
      "type": "function"
    },
    {
      "constant": false,
      "inputs": [
        {
          "internalType": "bytes",
          "name": "_signature",
          "type": "bytes"
        },
        {
          "internalType": "uint256",
          "name": "_bountyId",
          "type": "uint256"
        },
        {
          "internalType": "uint256",
          "name": "_fulfillmentId",
          "type": "uint256"
        },
        {
          "internalType": "uint256",
          "name": "_approverId",
          "type": "uint256"
        },
        {
          "internalType": "uint256[]",
          "name": "_tokenAmounts",
          "type": "uint256[]"
        },
        {
          "internalType": "uint256",
          "name": "_nonce",
          "type": "uint256"
        }
      ],
      "name": "metaAcceptFulfillment",
      "outputs": [],
      "payable": false,
      "stateMutability": "nonpayable",
      "type": "function"
    },
    {
      "constant": false,
      "inputs": [
        {
          "internalType": "bytes",
          "name": "_signature",
          "type": "bytes"
        },
        {
          "internalType": "uint256",
          "name": "_bountyId",
          "type": "uint256"
        },
        {
          "internalType": "address payable[]",
          "name": "_fulfillers",
          "type": "address[]"
        },
        {
          "internalType": "string",
          "name": "_data",
          "type": "string"
        },
        {
          "internalType": "uint256",
          "name": "_approverId",
          "type": "uint256"
        },
        {
          "internalType": "uint256[]",
          "name": "_tokenAmounts",
          "type": "uint256[]"
        },
        {
          "internalType": "uint256",
          "name": "_nonce",
          "type": "uint256"
        }
      ],
      "name": "metaFulfillAndAccept",
      "outputs": [],
      "payable": false,
      "stateMutability": "nonpayable",
      "type": "function"
    },
    {
      "constant": false,
      "inputs": [
        {
          "internalType": "bytes",
          "name": "_signature",
          "type": "bytes"
        },
        {
          "internalType": "uint256",
          "name": "_bountyId",
          "type": "uint256"
        },
        {
          "internalType": "uint256",
          "name": "_issuerId",
          "type": "uint256"
        },
        {
          "internalType": "address payable[]",
          "name": "_issuers",
          "type": "address[]"
        },
        {
          "internalType": "address payable[]",
          "name": "_approvers",
          "type": "address[]"
        },
        {
          "internalType": "string",
          "name": "_data",
          "type": "string"
        },
        {
          "internalType": "uint256",
          "name": "_deadline",
          "type": "uint256"
        },
        {
          "internalType": "uint256",
          "name": "_nonce",
          "type": "uint256"
        }
      ],
      "name": "metaChangeBounty",
      "outputs": [],
      "payable": false,
      "stateMutability": "nonpayable",
      "type": "function"
    },
    {
      "constant": false,
      "inputs": [
        {
          "internalType": "bytes",
          "name": "_signature",
          "type": "bytes"
        },
        {
          "internalType": "uint256",
          "name": "_bountyId",
          "type": "uint256"
        },
        {
          "internalType": "uint256",
          "name": "_issuerId",
          "type": "uint256"
        },
        {
          "internalType": "uint256",
          "name": "_issuerIdToChange",
          "type": "uint256"
        },
        {
          "internalType": "address payable",
          "name": "_newIssuer",
          "type": "address"
        },
        {
          "internalType": "uint256",
          "name": "_nonce",
          "type": "uint256"
        }
      ],
      "name": "metaChangeIssuer",
      "outputs": [],
      "payable": false,
      "stateMutability": "nonpayable",
      "type": "function"
    },
    {
      "constant": false,
      "inputs": [
        {
          "internalType": "bytes",
          "name": "_signature",
          "type": "bytes"
        },
        {
          "internalType": "uint256",
          "name": "_bountyId",
          "type": "uint256"
        },
        {
          "internalType": "uint256",
          "name": "_issuerId",
          "type": "uint256"
        },
        {
          "internalType": "uint256",
          "name": "_approverId",
          "type": "uint256"
        },
        {
          "internalType": "address payable",
          "name": "_approver",
          "type": "address"
        },
        {
          "internalType": "uint256",
          "name": "_nonce",
          "type": "uint256"
        }
      ],
      "name": "metaChangeApprover",
      "outputs": [],
      "payable": false,
      "stateMutability": "nonpayable",
      "type": "function"
    },
    {
      "constant": false,
      "inputs": [
        {
          "internalType": "bytes",
          "name": "_signature",
          "type": "bytes"
        },
        {
          "internalType": "uint256",
          "name": "_bountyId",
          "type": "uint256"
        },
        {
          "internalType": "uint256",
          "name": "_issuerId",
          "type": "uint256"
        },
        {
          "internalType": "string",
          "name": "_data",
          "type": "string"
        },
        {
          "internalType": "uint256",
          "name": "_nonce",
          "type": "uint256"
        }
      ],
      "name": "metaChangeData",
      "outputs": [],
      "payable": false,
      "stateMutability": "nonpayable",
      "type": "function"
    },
    {
      "constant": false,
      "inputs": [
        {
          "internalType": "bytes",
          "name": "_signature",
          "type": "bytes"
        },
        {
          "internalType": "uint256",
          "name": "_bountyId",
          "type": "uint256"
        },
        {
          "internalType": "uint256",
          "name": "_issuerId",
          "type": "uint256"
        },
        {
          "internalType": "uint256",
          "name": "_deadline",
          "type": "uint256"
        },
        {
          "internalType": "uint256",
          "name": "_nonce",
          "type": "uint256"
        }
      ],
      "name": "metaChangeDeadline",
      "outputs": [],
      "payable": false,
      "stateMutability": "nonpayable",
      "type": "function"
    },
    {
      "constant": false,
      "inputs": [
        {
          "internalType": "bytes",
          "name": "_signature",
          "type": "bytes"
        },
        {
          "internalType": "uint256",
          "name": "_bountyId",
          "type": "uint256"
        },
        {
          "internalType": "uint256",
          "name": "_issuerId",
          "type": "uint256"
        },
        {
          "internalType": "address payable[]",
          "name": "_issuers",
          "type": "address[]"
        },
        {
          "internalType": "uint256",
          "name": "_nonce",
          "type": "uint256"
        }
      ],
      "name": "metaAddIssuers",
      "outputs": [],
      "payable": false,
      "stateMutability": "nonpayable",
      "type": "function"
    },
    {
      "constant": false,
      "inputs": [
        {
          "internalType": "bytes",
          "name": "_signature",
          "type": "bytes"
        },
        {
          "internalType": "uint256",
          "name": "_bountyId",
          "type": "uint256"
        },
        {
          "internalType": "uint256",
          "name": "_issuerId",
          "type": "uint256"
        },
        {
          "internalType": "address[]",
          "name": "_approvers",
          "type": "address[]"
        },
        {
          "internalType": "uint256",
          "name": "_nonce",
          "type": "uint256"
        }
      ],
      "name": "metaAddApprovers",
      "outputs": [],
      "payable": false,
      "stateMutability": "nonpayable",
      "type": "function"
    }
  ],
  "bytecode": "0x60806040523480156200001157600080fd5b50604051620051f2380380620051f2833981810160405262000037919081019062000095565b806000806101000a81548173ffffffffffffffffffffffffffffffffffffffff021916908373ffffffffffffffffffffffffffffffffffffffff160217905550506200010f565b6000815190506200008f81620000f5565b92915050565b600060208284031215620000a857600080fd5b6000620000b8848285016200007e565b91505092915050565b6000620000ce82620000d5565b9050919050565b600073ffffffffffffffffffffffffffffffffffffffff82169050919050565b6200010081620000c1565b81146200010c57600080fd5b50565b6150d3806200011f6000396000f3fe60806040526004361061012a5760003560e01c8063926b4e5f116100ab578063b1e6bcbb1161006f578063b1e6bcbb1461039f578063c353a38a146103cf578063dc5065a8146103f8578063df4015fc14610421578063ec34c4c01461045e578063fbb9e715146104875761012a565b8063926b4e5f146102d057806393ee9f4f146102f9578063a39da94214610322578063a84d579d1461034d578063ae96762d146103765761012a565b8063432326a9116100f2578063432326a9146101fc578063484621d514610218578063632ebc7b1461024157806367d407df1461026a5780637984dfe6146102a75761012a565b80630dd72a791461012f578063103cd44f14610158578063189002051461018157806332a7856d146101aa57806336bb9122146101d3575b600080fd5b34801561013b57600080fd5b5061015660048036036101519190810190612d85565b6104b0565b005b34801561016457600080fd5b5061017f600480360361017a9190810190613162565b61066a565b005b34801561018d57600080fd5b506101a860048036036101a39190810190613381565b61081f565b005b3480156101b657600080fd5b506101d160048036036101cc91908101906135fd565b6109cf565b005b3480156101df57600080fd5b506101fa60048036036101f59190810190613050565b610b7f565b005b61021660048036036102119190810190613428565b610d3e565b005b34801561022457600080fd5b5061023f600480360361023a9190810190612f16565b610f89565b005b34801561024d57600080fd5b5061026860048036036102639190810190612e83565b611134565b005b34801561027657600080fd5b50610291600480360361028c9190810190612a65565b6112df565b60405161029e9190614d7b565b60405180910390f35b3480156102b357600080fd5b506102ce60048036036102c99190810190613544565b6112f7565b005b3480156102dc57600080fd5b506102f760048036036102f29190810190612fa9565b6114ab565b005b34801561030557600080fd5b50610320600480360361031b9190810190613428565b61165b565b005b34801561032e57600080fd5b50610337611806565b6040516103449190614d60565b60405180910390f35b34801561035957600080fd5b50610374600480360361036f91908101906134a3565b61182b565b005b34801561038257600080fd5b5061039d600480360361039891908101906132da565b6119e0565b005b6103b960048036036103b49190810190612ba0565b611b90565b6040516103c69190614d7b565b60405180910390f35b3480156103db57600080fd5b506103f660048036036103f19190810190613233565b611e47565b005b34801561040457600080fd5b5061041f600480360361041a91908101906134a3565b611ff7565b005b34801561042d57600080fd5b5061044860048036036104439190810190612a8e565b6121ac565b6040516104559190614d7b565b60405180910390f35b34801561046a57600080fd5b5061048560048036036104809190810190612cc6565b612390565b005b34801561049357600080fd5b506104ae60048036036104a991908101906132da565b612540565b005b6000308787878787876040516020016104cf97969594939291906146b2565b60405160208183030381529060405280519060200120905060006104f3828a6126f0565b9050600073ffffffffffffffffffffffffffffffffffffffff168173ffffffffffffffffffffffffffffffffffffffff16141561052f57600080fd5b600160008273ffffffffffffffffffffffffffffffffffffffff1673ffffffffffffffffffffffffffffffffffffffff16815260200190815260200160002054831461057a57600080fd5b600160008273ffffffffffffffffffffffffffffffffffffffff1673ffffffffffffffffffffffffffffffffffffffff168152602001908152602001600020600081548092919060010191905055506000809054906101000a900473ffffffffffffffffffffffffffffffffffffffff1673ffffffffffffffffffffffffffffffffffffffff1663c22215b8828a8a8a8a8a6040518763ffffffff1660e01b815260040161062d969594939291906148eb565b600060405180830381600087803b15801561064757600080fd5b505af115801561065b573d6000803e3d6000fd5b50505050505050505050505050565b60003086868686866040516020016106879695949392919061474a565b60405160208183030381529060405280519060200120905060006106ab82896126f0565b9050600073ffffffffffffffffffffffffffffffffffffffff168173ffffffffffffffffffffffffffffffffffffffff1614156106e757600080fd5b600160008273ffffffffffffffffffffffffffffffffffffffff1673ffffffffffffffffffffffffffffffffffffffff16815260200190815260200160002054831461073257600080fd5b600160008273ffffffffffffffffffffffffffffffffffffffff1673ffffffffffffffffffffffffffffffffffffffff168152602001908152602001600020600081548092919060010191905055506000809054906101000a900473ffffffffffffffffffffffffffffffffffffffff1673ffffffffffffffffffffffffffffffffffffffff1663c496045082898989896040518663ffffffff1660e01b81526004016107e3959493929190614b30565b600060405180830381600087803b1580156107fd57600080fd5b505af1158015610811573d6000803e3d6000fd5b505050505050505050505050565b6000308585858560405160200161083a9594939291906142c7565b604051602081830303815290604052805190602001209050600061085e82886126f0565b9050600073ffffffffffffffffffffffffffffffffffffffff168173ffffffffffffffffffffffffffffffffffffffff16141561089a57600080fd5b600160008273ffffffffffffffffffffffffffffffffffffffff1673ffffffffffffffffffffffffffffffffffffffff1681526020019081526020016000205483146108e557600080fd5b600160008273ffffffffffffffffffffffffffffffffffffffff1673ffffffffffffffffffffffffffffffffffffffff168152602001908152602001600020600081548092919060010191905055506000809054906101000a900473ffffffffffffffffffffffffffffffffffffffff1673ffffffffffffffffffffffffffffffffffffffff16637ef8213c828888886040518563ffffffff1660e01b81526004016109949493929190614bdd565b600060405180830381600087803b1580156109ae57600080fd5b505af11580156109c2573d6000803e3d6000fd5b5050505050505050505050565b600030858585856040516020016109ea95949392919061444f565b6040516020818303038152906040528051906020012090506000610a0e82886126f0565b9050600073ffffffffffffffffffffffffffffffffffffffff168173ffffffffffffffffffffffffffffffffffffffff161415610a4a57600080fd5b600160008273ffffffffffffffffffffffffffffffffffffffff1673ffffffffffffffffffffffffffffffffffffffff168152602001908152602001600020548314610a9557600080fd5b600160008273ffffffffffffffffffffffffffffffffffffffff1673ffffffffffffffffffffffffffffffffffffffff168152602001908152602001600020600081548092919060010191905055506000809054906101000a900473ffffffffffffffffffffffffffffffffffffffff1673ffffffffffffffffffffffffffffffffffffffff1663aa17aaef828888886040518563ffffffff1660e01b8152600401610b449493929190614c29565b600060405180830381600087803b158015610b5e57600080fd5b505af1158015610b72573d6000803e3d6000fd5b5050505050505050505050565b60003088888888888888604051602001610ba0989796959493929190613fae565b6040516020818303038152906040528051906020012090506000610bc4828b6126f0565b9050600073ffffffffffffffffffffffffffffffffffffffff168173ffffffffffffffffffffffffffffffffffffffff161415610c0057600080fd5b600160008273ffffffffffffffffffffffffffffffffffffffff1673ffffffffffffffffffffffffffffffffffffffff168152602001908152602001600020548314610c4b57600080fd5b600160008273ffffffffffffffffffffffffffffffffffffffff1673ffffffffffffffffffffffffffffffffffffffff168152602001908152602001600020600081548092919060010191905055506000809054906101000a900473ffffffffffffffffffffffffffffffffffffffff1673ffffffffffffffffffffffffffffffffffffffff1663b178d768828b8b8b8b8b8b6040518863ffffffff1660e01b8152600401610d009796959493929190614aac565b600060405180830381600087803b158015610d1a57600080fd5b505af1158015610d2e573d6000803e3d6000fd5b5050505050505050505050505050565b600030848484604051602001610d5794939291906141fb565b6040516020818303038152906040528051906020012090506000610d7b82876126f0565b9050600073ffffffffffffffffffffffffffffffffffffffff168173ffffffffffffffffffffffffffffffffffffffff161415610db757600080fd5b600160008273ffffffffffffffffffffffffffffffffffffffff1673ffffffffffffffffffffffffffffffffffffffff168152602001908152602001600020548314610e0257600080fd5b600160008273ffffffffffffffffffffffffffffffffffffffff1673ffffffffffffffffffffffffffffffffffffffff168152602001908152602001600020600081548092919060010191905055506000341115610ef0576000809054906101000a900473ffffffffffffffffffffffffffffffffffffffff1673ffffffffffffffffffffffffffffffffffffffff1663a08f793c348388886040518563ffffffff1660e01b8152600401610eb993929190613f2b565b6000604051808303818588803b158015610ed257600080fd5b505af1158015610ee6573d6000803e3d6000fd5b5050505050610f81565b6000809054906101000a900473ffffffffffffffffffffffffffffffffffffffff1673ffffffffffffffffffffffffffffffffffffffff1663a08f793c8287876040518463ffffffff1660e01b8152600401610f4e93929190613f2b565b600060405180830381600087803b158015610f6857600080fd5b505af1158015610f7c573d6000803e3d6000fd5b505050505b505050505050565b600030848484604051602001610fa2949392919061419c565b6040516020818303038152906040528051906020012090506000610fc682876126f0565b9050600073ffffffffffffffffffffffffffffffffffffffff168173ffffffffffffffffffffffffffffffffffffffff16141561100257600080fd5b600160008273ffffffffffffffffffffffffffffffffffffffff1673ffffffffffffffffffffffffffffffffffffffff16815260200190815260200160002054831461104d57600080fd5b600160008273ffffffffffffffffffffffffffffffffffffffff1673ffffffffffffffffffffffffffffffffffffffff168152602001908152602001600020600081548092919060010191905055506000809054906101000a900473ffffffffffffffffffffffffffffffffffffffff1673ffffffffffffffffffffffffffffffffffffffff16634ac4e25a8287876040518463ffffffff1660e01b81526004016110fa9392919061499f565b600060405180830381600087803b15801561111457600080fd5b505af1158015611128573d6000803e3d6000fd5b50505050505050505050565b60003084848460405160200161114d94939291906147cc565b604051602081830303815290604052805190602001209050600061117182876126f0565b9050600073ffffffffffffffffffffffffffffffffffffffff168173ffffffffffffffffffffffffffffffffffffffff1614156111ad57600080fd5b600160008273ffffffffffffffffffffffffffffffffffffffff1673ffffffffffffffffffffffffffffffffffffffff1681526020019081526020016000205483146111f857600080fd5b600160008273ffffffffffffffffffffffffffffffffffffffff1673ffffffffffffffffffffffffffffffffffffffff168152602001908152602001600020600081548092919060010191905055506000809054906101000a900473ffffffffffffffffffffffffffffffffffffffff1673ffffffffffffffffffffffffffffffffffffffff1663edba70138287876040518463ffffffff1660e01b81526004016112a593929190614961565b600060405180830381600087803b1580156112bf57600080fd5b505af11580156112d3573d6000803e3d6000fd5b50505050505050505050565b60016020528060005260406000206000915090505481565b600030868686868660405160200161131496959493929190614581565b604051602081830303815290604052805190602001209050600061133882896126f0565b9050600073ffffffffffffffffffffffffffffffffffffffff168173ffffffffffffffffffffffffffffffffffffffff16141561137457600080fd5b600160008273ffffffffffffffffffffffffffffffffffffffff1673ffffffffffffffffffffffffffffffffffffffff1681526020019081526020016000205483146113bf57600080fd5b600160008273ffffffffffffffffffffffffffffffffffffffff1673ffffffffffffffffffffffffffffffffffffffff168152602001908152602001600020600081548092919060010191905055506000809054906101000a900473ffffffffffffffffffffffffffffffffffffffff1673ffffffffffffffffffffffffffffffffffffffff1662f27e3882898989896040518663ffffffff1660e01b815260040161146f959493929190614cc1565b600060405180830381600087803b15801561148957600080fd5b505af115801561149d573d6000803e3d6000fd5b505050505050505050505050565b600030858585856040516020016114c6959493929190614055565b60405160208183030381529060405280519060200120905060006114ea82886126f0565b9050600073ffffffffffffffffffffffffffffffffffffffff168173ffffffffffffffffffffffffffffffffffffffff16141561152657600080fd5b600160008273ffffffffffffffffffffffffffffffffffffffff1673ffffffffffffffffffffffffffffffffffffffff16815260200190815260200160002054831461157157600080fd5b600160008273ffffffffffffffffffffffffffffffffffffffff1673ffffffffffffffffffffffffffffffffffffffff168152602001908152602001600020600081548092919060010191905055506000809054906101000a900473ffffffffffffffffffffffffffffffffffffffff1673ffffffffffffffffffffffffffffffffffffffff16634daf1bb5828888886040518563ffffffff1660e01b81526004016116209493929190614a14565b600060405180830381600087803b15801561163a57600080fd5b505af115801561164e573d6000803e3d6000fd5b5050505050505050505050565b6000308484846040516020016116749493929190614529565b604051602081830303815290604052805190602001209050600061169882876126f0565b9050600073ffffffffffffffffffffffffffffffffffffffff168173ffffffffffffffffffffffffffffffffffffffff1614156116d457600080fd5b600160008273ffffffffffffffffffffffffffffffffffffffff1673ffffffffffffffffffffffffffffffffffffffff16815260200190815260200160002054831461171f57600080fd5b600160008273ffffffffffffffffffffffffffffffffffffffff1673ffffffffffffffffffffffffffffffffffffffff168152602001908152602001600020600081548092919060010191905055506000809054906101000a900473ffffffffffffffffffffffffffffffffffffffff1673ffffffffffffffffffffffffffffffffffffffff166393c1ccc98287876040518463ffffffff1660e01b81526004016117cc939291906149dd565b600060405180830381600087803b1580156117e657600080fd5b505af11580156117fa573d6000803e3d6000fd5b50505050505050505050565b6000809054906101000a900473ffffffffffffffffffffffffffffffffffffffff1681565b6000308686868686604051602001611848969594939291906144b5565b604051602081830303815290604052805190602001209050600061186c82896126f0565b9050600073ffffffffffffffffffffffffffffffffffffffff168173ffffffffffffffffffffffffffffffffffffffff1614156118a857600080fd5b600160008273ffffffffffffffffffffffffffffffffffffffff1673ffffffffffffffffffffffffffffffffffffffff1681526020019081526020016000205483146118f357600080fd5b600160008273ffffffffffffffffffffffffffffffffffffffff1673ffffffffffffffffffffffffffffffffffffffff168152602001908152602001600020600081548092919060010191905055506000809054906101000a900473ffffffffffffffffffffffffffffffffffffffff1673ffffffffffffffffffffffffffffffffffffffff16632092e25982898989896040518663ffffffff1660e01b81526004016119a4959493929190614c6e565b600060405180830381600087803b1580156119be57600080fd5b505af11580156119d2573d6000803e3d6000fd5b505050505050505050505050565b600030858585856040516020016119fb9594939291906140c2565b6040516020818303038152906040528051906020012090506000611a1f82886126f0565b9050600073ffffffffffffffffffffffffffffffffffffffff168173ffffffffffffffffffffffffffffffffffffffff161415611a5b57600080fd5b600160008273ffffffffffffffffffffffffffffffffffffffff1673ffffffffffffffffffffffffffffffffffffffff168152602001908152602001600020548314611aa657600080fd5b600160008273ffffffffffffffffffffffffffffffffffffffff1673ffffffffffffffffffffffffffffffffffffffff168152602001908152602001600020600081548092919060010191905055506000809054906101000a900473ffffffffffffffffffffffffffffffffffffffff1673ffffffffffffffffffffffffffffffffffffffff16633756f3c8828888886040518563ffffffff1660e01b8152600401611b559493929190613f62565b600060405180830381600087803b158015611b6f57600080fd5b505af1158015611b83573d6000803e3d6000fd5b5050505050505050505050565b600080308a8a8a8a8a8a8a8a604051602001611bb4999897969594939291906145fc565b6040516020818303038152906040528051906020012090506000611bd8828d6126f0565b9050600073ffffffffffffffffffffffffffffffffffffffff168173ffffffffffffffffffffffffffffffffffffffff161415611c1457600080fd5b600160008273ffffffffffffffffffffffffffffffffffffffff1673ffffffffffffffffffffffffffffffffffffffff168152602001908152602001600020548414611c5f57600080fd5b600160008273ffffffffffffffffffffffffffffffffffffffff1673ffffffffffffffffffffffffffffffffffffffff168152602001908152602001600020600081548092919060010191905055506000341115611d7b576000809054906101000a900473ffffffffffffffffffffffffffffffffffffffff1673ffffffffffffffffffffffffffffffffffffffff166306060ae334838e8e8e8e8e8e8e6040518a63ffffffff1660e01b8152600401611d20989796959493929190613e98565b6020604051808303818588803b158015611d3957600080fd5b505af1158015611d4d573d6000803e3d6000fd5b50505050506040513d601f19601f82011682018060405250611d72919081019061368c565b92505050611e3a565b6000809054906101000a900473ffffffffffffffffffffffffffffffffffffffff1673ffffffffffffffffffffffffffffffffffffffff166306060ae3828d8d8d8d8d8d8d6040518963ffffffff1660e01b8152600401611de3989796959493929190613e98565b602060405180830381600087803b158015611dfd57600080fd5b505af1158015611e11573d6000803e3d6000fd5b505050506040513d601f19601f82011682018060405250611e35919081019061368c565b925050505b9998505050505050505050565b60003085858585604051602001611e6295949392919061482b565b6040516020818303038152906040528051906020012090506000611e8682886126f0565b9050600073ffffffffffffffffffffffffffffffffffffffff168173ffffffffffffffffffffffffffffffffffffffff161415611ec257600080fd5b600160008273ffffffffffffffffffffffffffffffffffffffff1673ffffffffffffffffffffffffffffffffffffffff168152602001908152602001600020548314611f0d57600080fd5b600160008273ffffffffffffffffffffffffffffffffffffffff1673ffffffffffffffffffffffffffffffffffffffff168152602001908152602001600020600081548092919060010191905055506000809054906101000a900473ffffffffffffffffffffffffffffffffffffffff1673ffffffffffffffffffffffffffffffffffffffff1663c6a8b42b828888886040518563ffffffff1660e01b8152600401611fbc9493929190614a60565b600060405180830381600087803b158015611fd657600080fd5b505af1158015611fea573d6000803e3d6000fd5b5050505050505050505050565b600030868686868660405160200161201496959493929190614253565b604051602081830303815290604052805190602001209050600061203882896126f0565b9050600073ffffffffffffffffffffffffffffffffffffffff168173ffffffffffffffffffffffffffffffffffffffff16141561207457600080fd5b600160008273ffffffffffffffffffffffffffffffffffffffff1673ffffffffffffffffffffffffffffffffffffffff1681526020019081526020016000205483146120bf57600080fd5b600160008273ffffffffffffffffffffffffffffffffffffffff1673ffffffffffffffffffffffffffffffffffffffff168152602001908152602001600020600081548092919060010191905055506000809054906101000a900473ffffffffffffffffffffffffffffffffffffffff1673ffffffffffffffffffffffffffffffffffffffff16639e64d9bf82898989896040518663ffffffff1660e01b8152600401612170959493929190614c6e565b600060405180830381600087803b15801561218a57600080fd5b505af115801561219e573d6000803e3d6000fd5b505050505050505050505050565b60008030898989898989896040516020016121ce9897969594939291906143a8565b60405160208183030381529060405280519060200120905060006121f2828c6126f0565b9050600073ffffffffffffffffffffffffffffffffffffffff168173ffffffffffffffffffffffffffffffffffffffff16141561222e57600080fd5b600160008273ffffffffffffffffffffffffffffffffffffffff1673ffffffffffffffffffffffffffffffffffffffff16815260200190815260200160002054841461227957600080fd5b600160008273ffffffffffffffffffffffffffffffffffffffff1673ffffffffffffffffffffffffffffffffffffffff168152602001908152602001600020600081548092919060010191905055506000809054906101000a900473ffffffffffffffffffffffffffffffffffffffff1673ffffffffffffffffffffffffffffffffffffffff1663567b3d2e828c8c8c8c8c8c6040518863ffffffff1660e01b815260040161232e9796959493929190613e14565b602060405180830381600087803b15801561234857600080fd5b505af115801561235c573d6000803e3d6000fd5b505050506040513d601f19601f82011682018060405250612380919081019061368c565b9250505098975050505050505050565b600030858585856040516020016123ab959493929190614334565b60405160208183030381529060405280519060200120905060006123cf82886126f0565b9050600073ffffffffffffffffffffffffffffffffffffffff168173ffffffffffffffffffffffffffffffffffffffff16141561240b57600080fd5b600160008273ffffffffffffffffffffffffffffffffffffffff1673ffffffffffffffffffffffffffffffffffffffff16815260200190815260200160002054831461245657600080fd5b600160008273ffffffffffffffffffffffffffffffffffffffff1673ffffffffffffffffffffffffffffffffffffffff168152602001908152602001600020600081548092919060010191905055506000809054906101000a900473ffffffffffffffffffffffffffffffffffffffff1673ffffffffffffffffffffffffffffffffffffffff166397d76665828888886040518563ffffffff1660e01b81526004016125059493929190614898565b600060405180830381600087803b15801561251f57600080fd5b505af1158015612533573d6000803e3d6000fd5b5050505050505050505050565b6000308585858560405160200161255b95949392919061412f565b604051602081830303815290604052805190602001209050600061257f82886126f0565b9050600073ffffffffffffffffffffffffffffffffffffffff168173ffffffffffffffffffffffffffffffffffffffff1614156125bb57600080fd5b600160008273ffffffffffffffffffffffffffffffffffffffff1673ffffffffffffffffffffffffffffffffffffffff16815260200190815260200160002054831461260657600080fd5b600160008273ffffffffffffffffffffffffffffffffffffffff1673ffffffffffffffffffffffffffffffffffffffff168152602001908152602001600020600081548092919060010191905055506000809054906101000a900473ffffffffffffffffffffffffffffffffffffffff1673ffffffffffffffffffffffffffffffffffffffff1663a071fbd5828888886040518563ffffffff1660e01b81526004016126b59493929190614b91565b600060405180830381600087803b1580156126cf57600080fd5b505af11580156126e3573d6000803e3d6000fd5b5050505050505050505050565b600080600080604185511461270b57600093505050506127da565b6020850151925060408501519150606085015160001a9050601b8160ff16101561273657601b810190505b601b8160ff161415801561274e5750601c8160ff1614155b1561275f57600093505050506127da565b6001866040516020016127729190613dee565b60405160208183030381529060405280519060200120828585604051600081526020016040526040516127a89493929190614d1b565b6020604051602081039080840390855afa1580156127ca573d6000803e3d6000fd5b5050506020604051035193505050505b92915050565b6000813590506127ef8161504b565b92915050565b60008135905061280481615062565b92915050565b600082601f83011261281b57600080fd5b813561282e61282982614dc3565b614d96565b9150818183526020840193506020810190508385602084028201111561285357600080fd5b60005b83811015612883578161286988826127e0565b845260208401935060208301925050600181019050612856565b5050505092915050565b600082601f83011261289e57600080fd5b81356128b16128ac82614deb565b614d96565b915081818352602084019350602081019050838560208402820111156128d657600080fd5b60005b8381101561290657816128ec88826127f5565b8452602084019350602083019250506001810190506128d9565b5050505092915050565b600082601f83011261292157600080fd5b813561293461292f82614e13565b614d96565b9150818183526020840193506020810190508385602084028201111561295957600080fd5b60005b83811015612989578161296f8882612a3b565b84526020840193506020830192505060018101905061295c565b5050505092915050565b600082601f8301126129a457600080fd5b81356129b76129b282614e3b565b614d96565b915080825260208301602083018583830111156129d357600080fd5b6129de838284614fee565b50505092915050565b600082601f8301126129f857600080fd5b8135612a0b612a0682614e67565b614d96565b91508082526020830160208301858383011115612a2757600080fd5b612a32838284614fee565b50505092915050565b600081359050612a4a81615079565b92915050565b600081519050612a5f81615079565b92915050565b600060208284031215612a7757600080fd5b6000612a85848285016127e0565b91505092915050565b600080600080600080600080610100898b031215612aab57600080fd5b600089013567ffffffffffffffff811115612ac557600080fd5b612ad18b828c01612993565b985050602089013567ffffffffffffffff811115612aee57600080fd5b612afa8b828c0161288d565b975050604089013567ffffffffffffffff811115612b1757600080fd5b612b238b828c0161280a565b965050606089013567ffffffffffffffff811115612b4057600080fd5b612b4c8b828c016129e7565b9550506080612b5d8b828c01612a3b565b94505060a0612b6e8b828c016127e0565b93505060c0612b7f8b828c01612a3b565b92505060e0612b908b828c01612a3b565b9150509295985092959890939650565b60008060008060008060008060006101208a8c031215612bbf57600080fd5b60008a013567ffffffffffffffff811115612bd957600080fd5b612be58c828d01612993565b99505060208a013567ffffffffffffffff811115612c0257600080fd5b612c0e8c828d0161288d565b98505060408a013567ffffffffffffffff811115612c2b57600080fd5b612c378c828d0161280a565b97505060608a013567ffffffffffffffff811115612c5457600080fd5b612c608c828d016129e7565b9650506080612c718c828d01612a3b565b95505060a0612c828c828d016127e0565b94505060c0612c938c828d01612a3b565b93505060e0612ca48c828d01612a3b565b925050610100612cb68c828d01612a3b565b9150509295985092959850929598565b600080600080600060a08688031215612cde57600080fd5b600086013567ffffffffffffffff811115612cf857600080fd5b612d0488828901612993565b9550506020612d1588828901612a3b565b945050604086013567ffffffffffffffff811115612d3257600080fd5b612d3e8882890161288d565b935050606086013567ffffffffffffffff811115612d5b57600080fd5b612d67888289016129e7565b9250506080612d7888828901612a3b565b9150509295509295909350565b600080600080600080600060e0888a031215612da057600080fd5b600088013567ffffffffffffffff811115612dba57600080fd5b612dc68a828b01612993565b9750506020612dd78a828b01612a3b565b965050604088013567ffffffffffffffff811115612df457600080fd5b612e008a828b0161288d565b955050606088013567ffffffffffffffff811115612e1d57600080fd5b612e298a828b016129e7565b9450506080612e3a8a828b01612a3b565b93505060a088013567ffffffffffffffff811115612e5757600080fd5b612e638a828b01612910565b92505060c0612e748a828b01612a3b565b91505092959891949750929550565b60008060008060808587031215612e9957600080fd5b600085013567ffffffffffffffff811115612eb357600080fd5b612ebf87828801612993565b9450506020612ed087828801612a3b565b935050604085013567ffffffffffffffff811115612eed57600080fd5b612ef987828801612910565b9250506060612f0a87828801612a3b565b91505092959194509250565b60008060008060808587031215612f2c57600080fd5b600085013567ffffffffffffffff811115612f4657600080fd5b612f5287828801612993565b9450506020612f6387828801612a3b565b935050604085013567ffffffffffffffff811115612f8057600080fd5b612f8c878288016129e7565b9250506060612f9d87828801612a3b565b91505092959194509250565b600080600080600060a08688031215612fc157600080fd5b600086013567ffffffffffffffff811115612fdb57600080fd5b612fe788828901612993565b9550506020612ff888828901612a3b565b945050604061300988828901612a3b565b935050606086013567ffffffffffffffff81111561302657600080fd5b6130328882890161280a565b925050608061304388828901612a3b565b9150509295509295909350565b600080600080600080600080610100898b03121561306d57600080fd5b600089013567ffffffffffffffff81111561308757600080fd5b6130938b828c01612993565b98505060206130a48b828c01612a3b565b97505060406130b58b828c01612a3b565b965050606089013567ffffffffffffffff8111156130d257600080fd5b6130de8b828c0161288d565b955050608089013567ffffffffffffffff8111156130fb57600080fd5b6131078b828c0161288d565b94505060a089013567ffffffffffffffff81111561312457600080fd5b6131308b828c016129e7565b93505060c06131418b828c01612a3b565b92505060e06131528b828c01612a3b565b9150509295985092959890939650565b60008060008060008060c0878903121561317b57600080fd5b600087013567ffffffffffffffff81111561319557600080fd5b6131a189828a01612993565b96505060206131b289828a01612a3b565b95505060406131c389828a01612a3b565b945050606087013567ffffffffffffffff8111156131e057600080fd5b6131ec89828a0161288d565b935050608087013567ffffffffffffffff81111561320957600080fd5b61321589828a016129e7565b92505060a061322689828a01612a3b565b9150509295509295509295565b600080600080600060a0868803121561324b57600080fd5b600086013567ffffffffffffffff81111561326557600080fd5b61327188828901612993565b955050602061328288828901612a3b565b945050604061329388828901612a3b565b935050606086013567ffffffffffffffff8111156132b057600080fd5b6132bc8882890161288d565b92505060806132cd88828901612a3b565b9150509295509295909350565b600080600080600060a086880312156132f257600080fd5b600086013567ffffffffffffffff81111561330c57600080fd5b61331888828901612993565b955050602061332988828901612a3b565b945050604061333a88828901612a3b565b935050606086013567ffffffffffffffff81111561335757600080fd5b61336388828901612910565b925050608061337488828901612a3b565b9150509295509295909350565b600080600080600060a0868803121561339957600080fd5b600086013567ffffffffffffffff8111156133b357600080fd5b6133bf88828901612993565b95505060206133d088828901612a3b565b94505060406133e188828901612a3b565b935050606086013567ffffffffffffffff8111156133fe57600080fd5b61340a888289016129e7565b925050608061341b88828901612a3b565b9150509295509295909350565b6000806000806080858703121561343e57600080fd5b600085013567ffffffffffffffff81111561345857600080fd5b61346487828801612993565b945050602061347587828801612a3b565b935050604061348687828801612a3b565b925050606061349787828801612a3b565b91505092959194509250565b60008060008060008060c087890312156134bc57600080fd5b600087013567ffffffffffffffff8111156134d657600080fd5b6134e289828a01612993565b96505060206134f389828a01612a3b565b955050604061350489828a01612a3b565b945050606061351589828a01612a3b565b935050608061352689828a016127f5565b92505060a061353789828a01612a3b565b9150509295509295509295565b60008060008060008060c0878903121561355d57600080fd5b600087013567ffffffffffffffff81111561357757600080fd5b61358389828a01612993565b965050602061359489828a01612a3b565b95505060406135a589828a01612a3b565b94505060606135b689828a01612a3b565b935050608087013567ffffffffffffffff8111156135d357600080fd5b6135df89828a01612910565b92505060a06135f089828a01612a3b565b9150509295509295509295565b600080600080600060a0868803121561361557600080fd5b600086013567ffffffffffffffff81111561362f57600080fd5b61363b88828901612993565b955050602061364c88828901612a3b565b945050604061365d88828901612a3b565b935050606061366e88828901612a3b565b925050608061367f88828901612a3b565b9150509295509295909350565b60006020828403121561369e57600080fd5b60006136ac84828501612a50565b91505092915050565b60006136c183836136fd565b60208301905092915050565b60006136d9838361371b565b60208301905092915050565b60006136f18383613dc1565b60208301905092915050565b61370681614f77565b82525050565b61371581614f77565b82525050565b61372481614f65565b82525050565b61373381614f65565b82525050565b600061374482614ec3565b61374e8185614f16565b935061375983614e93565b8060005b8381101561378a57815161377188826136cd565b975061377c83614eef565b92505060018101905061375d565b5085935050505092915050565b60006137a282614ece565b6137ac8185614f27565b93506137b783614ea3565b8060005b838110156137e85781516137cf88826136b5565b97506137da83614efc565b9250506001810190506137bb565b5085935050505092915050565b600061380082614ed9565b61380a8185614f38565b935061381583614eb3565b8060005b8381101561384657815161382d88826136e5565b975061383883614f09565b925050600181019050613819565b5085935050505092915050565b61385c81614f89565b82525050565b61387361386e82614f89565b615030565b82525050565b61388281614fca565b82525050565b600061389382614ee4565b61389d8185614f49565b93506138ad818560208601614ffd565b6138b68161503a565b840191505092915050565b60006138ce601c83614f5a565b91507f19457468657265756d205369676e6564204d6573736167653a0a3332000000006000830152601c82019050919050565b600061390e601083614f49565b91507f6d6574614368616e6765426f756e7479000000000000000000000000000000006000830152602082019050919050565b600061394e601083614f49565b91507f6d657461416464417070726f76657273000000000000000000000000000000006000830152602082019050919050565b600061398e600f83614f49565b91507f6d657461447261696e426f756e747900000000000000000000000000000000006000830152602082019050919050565b60006139ce601783614f49565b91507f6d657461526566756e64436f6e747269627574696f6e730000000000000000006000830152602082019050919050565b6000613a0e601183614f49565b91507f6d657461506572666f726d416374696f6e0000000000000000000000000000006000830152602082019050919050565b6000613a4e600e83614f49565b91507f6d657461436f6e747269627574650000000000000000000000000000000000006000830152602082019050919050565b6000613a8e601083614f49565b91507f6d6574614368616e6765497373756572000000000000000000000000000000006000830152602082019050919050565b6000613ace600e83614f49565b91507f6d6574614368616e6765446174610000000000000000000000000000000000006000830152602082019050919050565b6000613b0e601183614f49565b91507f6d65746146756c66696c6c426f756e74790000000000000000000000000000006000830152602082019050919050565b6000613b4e600f83614f49565b91507f6d6574614973737565426f756e747900000000000000000000000000000000006000830152602082019050919050565b6000613b8e601283614f49565b91507f6d6574614368616e6765446561646c696e6500000000000000000000000000006000830152602082019050919050565b6000613bce601283614f49565b91507f6d6574614368616e6765417070726f76657200000000000000000000000000006000830152602082019050919050565b6000613c0e601683614f49565b91507f6d657461526566756e64436f6e747269627574696f6e000000000000000000006000830152602082019050919050565b6000613c4e601583614f49565b91507f6d65746141636365707446756c66696c6c6d656e7400000000000000000000006000830152602082019050919050565b6000613c8e601683614f49565b91507f6d6574614973737565416e64436f6e74726962757465000000000000000000006000830152602082019050919050565b6000613cce601483614f49565b91507f6d65746146756c66696c6c416e644163636570740000000000000000000000006000830152602082019050919050565b6000613d0e601583614f49565b91507f6d65746155706461746546756c66696c6c6d656e7400000000000000000000006000830152602082019050919050565b6000613d4e601983614f49565b91507f6d657461526566756e644d79436f6e747269627574696f6e73000000000000006000830152602082019050919050565b6000613d8e600e83614f49565b91507f6d657461416464497373756572730000000000000000000000000000000000006000830152602082019050919050565b613dca81614fb3565b82525050565b613dd981614fb3565b82525050565b613de881614fbd565b82525050565b6000613df9826138c1565b9150613e058284613862565b60208201915081905092915050565b600060e082019050613e29600083018a61370c565b8181036020830152613e3b8189613797565b90508181036040830152613e4f8188613739565b90508181036060830152613e638187613888565b9050613e726080830186613dd0565b613e7f60a083018561372a565b613e8c60c0830184613dd0565b98975050505050505050565b600061010082019050613eae600083018b61370c565b8181036020830152613ec0818a613797565b90508181036040830152613ed48189613739565b90508181036060830152613ee88188613888565b9050613ef76080830187613dd0565b613f0460a083018661372a565b613f1160c0830185613dd0565b613f1e60e0830184613dd0565b9998505050505050505050565b6000606082019050613f40600083018661370c565b613f4d6020830185613dd0565b613f5a6040830184613dd0565b949350505050565b6000608082019050613f77600083018761370c565b613f846020830186613dd0565b613f916040830185613dd0565b8181036060830152613fa381846137f5565b905095945050505050565b600061012082019050613fc4600083018b61372a565b8181036020830152613fd581613901565b9050613fe4604083018a613dd0565b613ff16060830189613dd0565b81810360808301526140038188613797565b905081810360a08301526140178187613797565b905081810360c083015261402b8186613888565b905061403a60e0830185613dd0565b614048610100830184613dd0565b9998505050505050505050565b600060c08201905061406a600083018861372a565b818103602083015261407b81613941565b905061408a6040830187613dd0565b6140976060830186613dd0565b81810360808301526140a98185613739565b90506140b860a0830184613dd0565b9695505050505050565b600060c0820190506140d7600083018861372a565b81810360208301526140e881613981565b90506140f76040830187613dd0565b6141046060830186613dd0565b818103608083015261411681856137f5565b905061412560a0830184613dd0565b9695505050505050565b600060c082019050614144600083018861372a565b8181036020830152614155816139c1565b90506141646040830187613dd0565b6141716060830186613dd0565b818103608083015261418381856137f5565b905061419260a0830184613dd0565b9695505050505050565b600060a0820190506141b1600083018761372a565b81810360208301526141c281613a01565b90506141d16040830186613dd0565b81810360608301526141e38185613888565b90506141f26080830184613dd0565b95945050505050565b600060a082019050614210600083018761372a565b818103602083015261422181613a41565b90506142306040830186613dd0565b61423d6060830185613dd0565b61424a6080830184613dd0565b95945050505050565b600060e082019050614268600083018961372a565b818103602083015261427981613a81565b90506142886040830188613dd0565b6142956060830187613dd0565b6142a26080830186613dd0565b6142af60a083018561370c565b6142bc60c0830184613dd0565b979650505050505050565b600060c0820190506142dc600083018861372a565b81810360208301526142ed81613ac1565b90506142fc6040830187613dd0565b6143096060830186613dd0565b818103608083015261431b8185613888565b905061432a60a0830184613dd0565b9695505050505050565b600060c082019050614349600083018861372a565b818103602083015261435a81613b01565b90506143696040830187613dd0565b818103606083015261437b8186613797565b9050818103608083015261438f8185613888565b905061439e60a0830184613dd0565b9695505050505050565b6000610120820190506143be600083018b61372a565b81810360208301526143cf81613b41565b905081810360408301526143e3818a613797565b905081810360608301526143f78189613739565b9050818103608083015261440b8188613888565b905061441a60a0830187613dd0565b61442760c083018661372a565b61443460e0830185613dd0565b614442610100830184613dd0565b9998505050505050505050565b600060c082019050614464600083018861372a565b818103602083015261447581613b81565b90506144846040830187613dd0565b6144916060830186613dd0565b61449e6080830185613dd0565b6144ab60a0830184613dd0565b9695505050505050565b600060e0820190506144ca600083018961372a565b81810360208301526144db81613bc1565b90506144ea6040830188613dd0565b6144f76060830187613dd0565b6145046080830186613dd0565b61451160a083018561370c565b61451e60c0830184613dd0565b979650505050505050565b600060a08201905061453e600083018761372a565b818103602083015261454f81613c01565b905061455e6040830186613dd0565b61456b6060830185613dd0565b6145786080830184613dd0565b95945050505050565b600060e082019050614596600083018961372a565b81810360208301526145a781613c41565b90506145b66040830188613dd0565b6145c36060830187613dd0565b6145d06080830186613dd0565b81810360a08301526145e281856137f5565b90506145f160c0830184613dd0565b979650505050505050565b600061014082019050614612600083018c61372a565b818103602083015261462381613c81565b90508181036040830152614637818b613797565b9050818103606083015261464b818a613739565b9050818103608083015261465f8189613888565b905061466e60a0830188613dd0565b61467b60c083018761372a565b61468860e0830186613dd0565b614696610100830185613dd0565b6146a4610120830184613dd0565b9a9950505050505050505050565b6000610100820190506146c8600083018a61372a565b81810360208301526146d981613cc1565b90506146e86040830189613dd0565b81810360608301526146fa8188613797565b9050818103608083015261470e8187613888565b905061471d60a0830186613dd0565b81810360c083015261472f81856137f5565b905061473e60e0830184613dd0565b98975050505050505050565b600060e08201905061475f600083018961372a565b818103602083015261477081613d01565b905061477f6040830188613dd0565b61478c6060830187613dd0565b818103608083015261479e8186613797565b905081810360a08301526147b28185613888565b90506147c160c0830184613dd0565b979650505050505050565b600060a0820190506147e1600083018761372a565b81810360208301526147f281613d41565b90506148016040830186613dd0565b818103606083015261481381856137f5565b90506148226080830184613dd0565b95945050505050565b600060c082019050614840600083018861372a565b818103602083015261485181613d81565b90506148606040830187613dd0565b61486d6060830186613dd0565b818103608083015261487f8185613797565b905061488e60a0830184613dd0565b9695505050505050565b60006080820190506148ad600083018761372a565b6148ba6020830186613dd0565b81810360408301526148cc8185613797565b905081810360608301526148e08184613888565b905095945050505050565b600060c082019050614900600083018961372a565b61490d6020830188613dd0565b818103604083015261491f8187613797565b905081810360608301526149338186613888565b90506149426080830185613dd0565b81810360a083015261495481846137f5565b9050979650505050505050565b6000606082019050614976600083018661372a565b6149836020830185613dd0565b818103604083015261499581846137f5565b9050949350505050565b60006060820190506149b4600083018661372a565b6149c16020830185613dd0565b81810360408301526149d38184613888565b9050949350505050565b60006060820190506149f2600083018661372a565b6149ff6020830185613dd0565b614a0c6040830184613dd0565b949350505050565b6000608082019050614a29600083018761372a565b614a366020830186613dd0565b614a436040830185613dd0565b8181036060830152614a558184613739565b905095945050505050565b6000608082019050614a75600083018761372a565b614a826020830186613dd0565b614a8f6040830185613dd0565b8181036060830152614aa18184613797565b905095945050505050565b600060e082019050614ac1600083018a61372a565b614ace6020830189613dd0565b614adb6040830188613dd0565b8181036060830152614aed8187613797565b90508181036080830152614b018186613797565b905081810360a0830152614b158185613888565b9050614b2460c0830184613dd0565b98975050505050505050565b600060a082019050614b45600083018861372a565b614b526020830187613dd0565b614b5f6040830186613dd0565b8181036060830152614b718185613797565b90508181036080830152614b858184613888565b90509695505050505050565b6000608082019050614ba6600083018761372a565b614bb36020830186613dd0565b614bc06040830185613dd0565b8181036060830152614bd281846137f5565b905095945050505050565b6000608082019050614bf2600083018761372a565b614bff6020830186613dd0565b614c0c6040830185613dd0565b8181036060830152614c1e8184613888565b905095945050505050565b6000608082019050614c3e600083018761372a565b614c4b6020830186613dd0565b614c586040830185613dd0565b614c656060830184613dd0565b95945050505050565b600060a082019050614c83600083018861372a565b614c906020830187613dd0565b614c9d6040830186613dd0565b614caa6060830185613dd0565b614cb7608083018461370c565b9695505050505050565b600060a082019050614cd6600083018861372a565b614ce36020830187613dd0565b614cf06040830186613dd0565b614cfd6060830185613dd0565b8181036080830152614d0f81846137f5565b90509695505050505050565b6000608082019050614d306000830187613853565b614d3d6020830186613ddf565b614d4a6040830185613853565b614d576060830184613853565b95945050505050565b6000602082019050614d756000830184613879565b92915050565b6000602082019050614d906000830184613dd0565b92915050565b6000604051905081810181811067ffffffffffffffff82111715614db957600080fd5b8060405250919050565b600067ffffffffffffffff821115614dda57600080fd5b602082029050602081019050919050565b600067ffffffffffffffff821115614e0257600080fd5b602082029050602081019050919050565b600067ffffffffffffffff821115614e2a57600080fd5b602082029050602081019050919050565b600067ffffffffffffffff821115614e5257600080fd5b601f19601f8301169050602081019050919050565b600067ffffffffffffffff821115614e7e57600080fd5b601f19601f8301169050602081019050919050565b6000819050602082019050919050565b6000819050602082019050919050565b6000819050602082019050919050565b600081519050919050565b600081519050919050565b600081519050919050565b600081519050919050565b6000602082019050919050565b6000602082019050919050565b6000602082019050919050565b600082825260208201905092915050565b600082825260208201905092915050565b600082825260208201905092915050565b600082825260208201905092915050565b600081905092915050565b6000614f7082614f93565b9050919050565b6000614f8282614f93565b9050919050565b6000819050919050565b600073ffffffffffffffffffffffffffffffffffffffff82169050919050565b6000819050919050565b600060ff82169050919050565b6000614fd582614fdc565b9050919050565b6000614fe782614f93565b9050919050565b82818337600083830152505050565b60005b8381101561501b578082015181840152602081019050615000565b8381111561502a576000848401525b50505050565b6000819050919050565b6000601f19601f8301169050919050565b61505481614f65565b811461505f57600080fd5b50565b61506b81614f77565b811461507657600080fd5b50565b61508281614fb3565b811461508d57600080fd5b5056fea365627a7a72315820d760055db5f62eccd14a369e5f3cdba8a0d10d17c8c061ed7653f6d342ba55a36c6578706572696d656e74616cf564736f6c63430005100040",
  "source": "pragma solidity 0.5.16;\npragma experimental ABIEncoderV2;\n\nimport \"./StandardBounties.sol\";\n\n\n\ncontract BountiesMetaTxRelayer {\n\n  // This contract serves as a relayer for meta txns being sent to the Bounties contract\n\n  StandardBounties public bountiesContract;\n  mapping(address => uint) public replayNonce;\n\n\n  constructor(address _contract) public {\n    bountiesContract = StandardBounties(_contract);\n  }\n\n  function metaIssueBounty(\n    bytes memory signature,\n    address payable[] memory _issuers,\n    address[] memory _approvers,\n    string memory _data,\n    uint _deadline,\n    address _token,\n    uint _tokenVersion,\n    uint _nonce)\n    public\n    returns (uint)\n    {\n    bytes32 metaHash = keccak256(abi.encode(address(this),\n                                                  \"metaIssueBounty\",\n                                                  _issuers,\n                                                  _approvers,\n                                                  _data,\n                                                  _deadline,\n                                                  _token,\n                                                  _tokenVersion,\n                                                  _nonce));\n    address signer = getSigner(metaHash, signature);\n\n    //make sure signer doesn't come back as 0x0\n    require(signer != address(0));\n    require(_nonce == replayNonce[signer]);\n\n    //increase the nonce to prevent replay attacks\n    replayNonce[signer]++;\n    return bountiesContract.issueBounty(address(uint160(signer)),\n                                         _issuers,\n                                         _approvers,\n                                         _data,\n                                         _deadline,\n                                         _token,\n                                         _tokenVersion);\n  }\n\n  function metaIssueAndContribute(\n    bytes memory signature,\n    address payable[] memory _issuers,\n    address[] memory _approvers,\n    string memory _data,\n    uint _deadline,\n    address _token,\n    uint _tokenVersion,\n    uint _depositAmount,\n    uint _nonce)\n    public\n    payable\n    returns (uint)\n    {\n    bytes32 metaHash = keccak256(abi.encode(address(this),\n                                                  \"metaIssueAndContribute\",\n                                                  _issuers,\n                                                  _approvers,\n                                                  _data,\n                                                  _deadline,\n                                                  _token,\n                                                  _tokenVersion,\n                                                  _depositAmount,\n                                                  _nonce));\n    address signer = getSigner(metaHash, signature);\n\n    //make sure signer doesn't come back as 0x0\n    require(signer != address(0));\n    require(_nonce == replayNonce[signer]);\n\n    //increase the nonce to prevent replay attacks\n    replayNonce[signer]++;\n\n    if (msg.value > 0){\n      return bountiesContract.issueAndContribute.value(msg.value)(address(uint160(signer)),\n                                                 _issuers,\n                                                 _approvers,\n                                                 _data,\n                                                 _deadline,\n                                                 _token,\n                                                 _tokenVersion,\n                                                 _depositAmount);\n    } else {\n      return bountiesContract.issueAndContribute(address(uint160(signer)),\n                                                 _issuers,\n                                                 _approvers,\n                                                 _data,\n                                                 _deadline,\n                                                 _token,\n                                                 _tokenVersion,\n                                                 _depositAmount);\n    }\n\n  }\n\n  function metaContribute(\n    bytes memory _signature,\n    uint _bountyId,\n    uint _amount,\n    uint _nonce)\n    public\n    payable\n    {\n    bytes32 metaHash = keccak256(abi.encode(address(this),\n                                                  \"metaContribute\",\n                                                  _bountyId,\n                                                  _amount,\n                                                  _nonce));\n    address signer = getSigner(metaHash, _signature);\n\n    //make sure signer doesn't come back as 0x0\n    require(signer != address(0));\n    require(_nonce == replayNonce[signer]);\n\n    //increase the nonce to prevent replay attacks\n    replayNonce[signer]++;\n\n    if (msg.value > 0){\n      bountiesContract.contribute.value(msg.value)(address(uint160(signer)), _bountyId, _amount);\n    } else {\n      bountiesContract.contribute(address(uint160(signer)), _bountyId, _amount);\n    }\n  }\n\n\n  function metaRefundContribution(\n    bytes memory _signature,\n    uint _bountyId,\n    uint _contributionId,\n    uint _nonce)\n    public\n    {\n    bytes32 metaHash = keccak256(abi.encode(address(this),\n                                                  \"metaRefundContribution\",\n                                                  _bountyId,\n                                                  _contributionId,\n                                                  _nonce));\n    address signer = getSigner(metaHash, _signature);\n\n    //make sure signer doesn't come back as 0x0\n    require(signer != address(0));\n    require(_nonce == replayNonce[signer]);\n\n    //increase the nonce to prevent replay attacks\n    replayNonce[signer]++;\n\n    bountiesContract.refundContribution(signer, _bountyId, _contributionId);\n  }\n\n  function metaRefundMyContributions(\n    bytes memory _signature,\n    uint _bountyId,\n    uint[] memory _contributionIds,\n    uint _nonce)\n    public\n    {\n    bytes32 metaHash = keccak256(abi.encode(address(this),\n                                                  \"metaRefundMyContributions\",\n                                                  _bountyId,\n                                                  _contributionIds,\n                                                  _nonce));\n    address signer = getSigner(metaHash, _signature);\n\n    //make sure signer doesn't come back as 0x0\n    require(signer != address(0));\n    require(_nonce == replayNonce[signer]);\n\n    //increase the nonce to prevent replay attacks\n    replayNonce[signer]++;\n\n    bountiesContract.refundMyContributions(signer, _bountyId, _contributionIds);\n  }\n\n  function metaRefundContributions(\n    bytes memory _signature,\n    uint _bountyId,\n    uint _issuerId,\n    uint[] memory _contributionIds,\n    uint _nonce)\n    public\n    {\n    bytes32 metaHash = keccak256(abi.encode(address(this),\n                                                  \"metaRefundContributions\",\n                                                  _bountyId,\n                                                  _issuerId,\n                                                  _contributionIds,\n                                                  _nonce));\n    address signer = getSigner(metaHash, _signature);\n\n    //make sure signer doesn't come back as 0x0\n    require(signer != address(0));\n    require(_nonce == replayNonce[signer]);\n\n    //increase the nonce to prevent replay attacks\n    replayNonce[signer]++;\n\n    bountiesContract.refundContributions(signer, _bountyId, _issuerId, _contributionIds);\n  }\n\n  function metaDrainBounty(\n    bytes memory _signature,\n    uint _bountyId,\n    uint _issuerId,\n    uint[] memory _amounts,\n    uint _nonce)\n    public\n    {\n    bytes32 metaHash = keccak256(abi.encode(address(this),\n                                                  \"metaDrainBounty\",\n                                                  _bountyId,\n                                                  _issuerId,\n                                                  _amounts,\n                                                  _nonce));\n    address payable signer = address(uint160(getSigner(metaHash, _signature)));\n\n    //make sure signer doesn't come back as 0x0\n    require(signer != address(0));\n    require(_nonce == replayNonce[signer]);\n\n    //increase the nonce to prevent replay attacks\n    replayNonce[signer]++;\n\n    bountiesContract.drainBounty(signer, _bountyId, _issuerId, _amounts);\n  }\n\n  function metaPerformAction(\n    bytes memory _signature,\n    uint _bountyId,\n    string memory _data,\n    uint256 _nonce)\n    public\n    {\n    bytes32 metaHash = keccak256(abi.encode(address(this),\n                                                  \"metaPerformAction\",\n                                                  _bountyId,\n                                                  _data,\n                                                  _nonce));\n    address signer = getSigner(metaHash, _signature);\n    //make sure signer doesn't come back as 0x0\n    require(signer != address(0));\n    require(_nonce == replayNonce[signer]);\n\n    //increase the nonce to prevent replay attacks\n    replayNonce[signer]++;\n\n    bountiesContract.performAction(signer, _bountyId, _data);\n  }\n\n  function metaFulfillBounty(\n    bytes memory _signature,\n    uint _bountyId,\n    address payable[] memory  _fulfillers,\n    string memory _data,\n    uint256 _nonce)\n    public\n    {\n    bytes32 metaHash = keccak256(abi.encode(address(this),\n                                                  \"metaFulfillBounty\",\n                                                  _bountyId,\n                                                  _fulfillers,\n                                                  _data,\n                                                  _nonce));\n    address signer = getSigner(metaHash, _signature);\n    //make sure signer doesn't come back as 0x0\n    require(signer != address(0));\n    require(_nonce == replayNonce[signer]);\n\n    //increase the nonce to prevent replay attacks\n    replayNonce[signer]++;\n\n    bountiesContract.fulfillBounty(signer, _bountyId, _fulfillers, _data);\n  }\n\n  function metaUpdateFulfillment(\n    bytes memory _signature,\n    uint _bountyId,\n    uint _fulfillmentId,\n    address payable[] memory  _fulfillers,\n    string memory _data,\n    uint256 _nonce)\n    public\n    {\n    bytes32 metaHash = keccak256(abi.encode(address(this),\n                                                  \"metaUpdateFulfillment\",\n                                                  _bountyId,\n                                                  _fulfillmentId,\n                                                  _fulfillers,\n                                                  _data,\n                                                  _nonce));\n    address signer = getSigner(metaHash, _signature);\n    //make sure signer doesn't come back as 0x0\n    require(signer != address(0));\n    require(_nonce == replayNonce[signer]);\n\n    //increase the nonce to prevent replay attacks\n    replayNonce[signer]++;\n\n    bountiesContract.updateFulfillment(signer, _bountyId, _fulfillmentId, _fulfillers, _data);\n  }\n\n  function metaAcceptFulfillment(\n    bytes memory _signature,\n    uint _bountyId,\n    uint _fulfillmentId,\n    uint _approverId,\n    uint[] memory _tokenAmounts,\n    uint256 _nonce)\n    public\n    {\n    bytes32 metaHash = keccak256(abi.encode(address(this),\n                                                  \"metaAcceptFulfillment\",\n                                                  _bountyId,\n                                                  _fulfillmentId,\n                                                  _approverId,\n                                                  _tokenAmounts,\n                                                  _nonce));\n    address signer = getSigner(metaHash, _signature);\n    //make sure signer doesn't come back as 0x0\n    require(signer != address(0));\n    require(_nonce == replayNonce[signer]);\n\n    //increase the nonce to prevent replay attacks\n    replayNonce[signer]++;\n\n    bountiesContract.acceptFulfillment(signer,\n                       _bountyId,\n                       _fulfillmentId,\n                       _approverId,\n                       _tokenAmounts);\n  }\n\n  function metaFulfillAndAccept(\n    bytes memory _signature,\n    uint _bountyId,\n    address payable[] memory _fulfillers,\n    string memory _data,\n    uint _approverId,\n    uint[] memory _tokenAmounts,\n    uint256 _nonce)\n    public\n    {\n    bytes32 metaHash = keccak256(abi.encode(address(this),\n                                                  \"metaFulfillAndAccept\",\n                                                  _bountyId,\n                                                  _fulfillers,\n                                                  _data,\n                                                  _approverId,\n                                                  _tokenAmounts,\n                                                  _nonce));\n    address signer = getSigner(metaHash, _signature);\n    //make sure signer doesn't come back as 0x0\n    require(signer != address(0));\n    require(_nonce == replayNonce[signer]);\n\n    //increase the nonce to prevent replay attacks\n    replayNonce[signer]++;\n\n    bountiesContract.fulfillAndAccept(signer,\n                      _bountyId,\n                      _fulfillers,\n                      _data,\n                      _approverId,\n                      _tokenAmounts);\n  }\n\n  function metaChangeBounty(\n    bytes memory _signature,\n    uint _bountyId,\n    uint _issuerId,\n    address payable[] memory _issuers,\n    address payable[] memory _approvers,\n    string memory _data,\n    uint _deadline,\n    uint256 _nonce)\n    public\n    {\n    bytes32 metaHash = keccak256(abi.encode(address(this),\n                                                  \"metaChangeBounty\",\n                                                  _bountyId,\n                                                  _issuerId,\n                                                  _issuers,\n                                                  _approvers,\n                                                  _data,\n                                                  _deadline,\n                                                  _nonce));\n    address signer = getSigner(metaHash, _signature);\n    //make sure signer doesn't come back as 0x0\n    require(signer != address(0));\n    require(_nonce == replayNonce[signer]);\n\n    //increase the nonce to prevent replay attacks\n    replayNonce[signer]++;\n\n    bountiesContract.changeBounty(signer,\n                  _bountyId,\n                  _issuerId,\n                  _issuers,\n                  _approvers,\n                  _data,\n                  _deadline);\n  }\n\n  function metaChangeIssuer(\n    bytes memory _signature,\n    uint _bountyId,\n    uint _issuerId,\n    uint _issuerIdToChange,\n    address payable _newIssuer,\n    uint256 _nonce)\n    public\n    {\n    bytes32 metaHash = keccak256(abi.encode(address(this),\n                                                  \"metaChangeIssuer\",\n                                                  _bountyId,\n                                                  _issuerId,\n                                                  _issuerIdToChange,\n                                                  _newIssuer,\n                                                  _nonce));\n    address signer = getSigner(metaHash, _signature);\n    //make sure signer doesn't come back as 0x0\n    require(signer != address(0));\n    require(_nonce == replayNonce[signer]);\n\n    //increase the nonce to prevent replay attacks\n    replayNonce[signer]++;\n\n    bountiesContract.changeIssuer(signer,\n                  _bountyId,\n                  _issuerId,\n                  _issuerIdToChange,\n                  _newIssuer);\n  }\n\n  function metaChangeApprover(\n    bytes memory _signature,\n    uint _bountyId,\n    uint _issuerId,\n    uint _approverId,\n    address payable _approver,\n    uint256 _nonce)\n    public\n    {\n    bytes32 metaHash = keccak256(abi.encode(address(this),\n                                                  \"metaChangeApprover\",\n                                                  _bountyId,\n                                                  _issuerId,\n                                                  _approverId,\n                                                  _approver,\n                                                  _nonce));\n    address signer = getSigner(metaHash, _signature);\n    //make sure signer doesn't come back as 0x0\n    require(signer != address(0));\n    require(_nonce == replayNonce[signer]);\n\n    //increase the nonce to prevent replay attacks\n    replayNonce[signer]++;\n\n    bountiesContract.changeApprover(signer,\n                  _bountyId,\n                  _issuerId,\n                  _approverId,\n                  _approver);\n  }\n\n  function metaChangeData(\n    bytes memory _signature,\n    uint _bountyId,\n    uint _issuerId,\n    string memory _data,\n    uint256 _nonce)\n    public\n    {\n    bytes32 metaHash = keccak256(abi.encode(address(this),\n                                                  \"metaChangeData\",\n                                                  _bountyId,\n                                                  _issuerId,\n                                                  _data,\n                                                  _nonce));\n    address signer = getSigner(metaHash, _signature);\n    //make sure signer doesn't come back as 0x0\n    require(signer != address(0));\n    require(_nonce == replayNonce[signer]);\n\n    //increase the nonce to prevent replay attacks\n    replayNonce[signer]++;\n\n    bountiesContract.changeData(signer,\n                _bountyId,\n                _issuerId,\n                _data);\n  }\n\n  function metaChangeDeadline(\n    bytes memory _signature,\n    uint _bountyId,\n    uint _issuerId,\n    uint  _deadline,\n    uint256 _nonce)\n    public\n    {\n    bytes32 metaHash = keccak256(abi.encode(address(this),\n                                                  \"metaChangeDeadline\",\n                                                  _bountyId,\n                                                  _issuerId,\n                                                  _deadline,\n                                                  _nonce));\n    address signer = getSigner(metaHash, _signature);\n    //make sure signer doesn't come back as 0x0\n    require(signer != address(0));\n    require(_nonce == replayNonce[signer]);\n\n    //increase the nonce to prevent replay attacks\n    replayNonce[signer]++;\n\n    bountiesContract.changeDeadline(signer,\n                    _bountyId,\n                    _issuerId,\n                    _deadline);\n  }\n\n  function metaAddIssuers(\n    bytes memory _signature,\n    uint _bountyId,\n    uint _issuerId,\n    address payable[] memory _issuers,\n    uint256 _nonce)\n    public\n    {\n    bytes32 metaHash = keccak256(abi.encode(address(this),\n                                                  \"metaAddIssuers\",\n                                                  _bountyId,\n                                                  _issuerId,\n                                                  _issuers,\n                                                  _nonce));\n    address signer = getSigner(metaHash, _signature);\n    //make sure signer doesn't come back as 0x0\n    require(signer != address(0));\n    require(_nonce == replayNonce[signer]);\n\n    //increase the nonce to prevent replay attacks\n    replayNonce[signer]++;\n\n    bountiesContract.addIssuers(signer,\n                _bountyId,\n                _issuerId,\n                _issuers);\n  }\n\n  function metaAddApprovers(\n    bytes memory _signature,\n    uint _bountyId,\n    uint _issuerId,\n    address[] memory _approvers,\n    uint256 _nonce)\n    public\n    {\n    bytes32 metaHash = keccak256(abi.encode(address(this),\n                                                  \"metaAddApprovers\",\n                                                  _bountyId,\n                                                  _issuerId,\n                                                  _approvers,\n                                                  _nonce));\n    address signer = getSigner(metaHash, _signature);\n    //make sure signer doesn't come back as 0x0\n    require(signer != address(0));\n    require(_nonce == replayNonce[signer]);\n\n    //increase the nonce to prevent replay attacks\n    replayNonce[signer]++;\n\n    bountiesContract.addApprovers(signer,\n                _bountyId,\n                _issuerId,\n                _approvers);\n  }\n\n  function getSigner(\n    bytes32 _hash,\n    bytes memory _signature)\n    internal\n    pure\n    returns (address)\n  {\n    bytes32 r;\n    bytes32 s;\n    uint8 v;\n    if (_signature.length != 65){\n      return address(0);\n    }\n    assembly {\n      r := mload(add(_signature, 32))\n      s := mload(add(_signature, 64))\n      v := byte(0, mload(add(_signature, 96)))\n    }\n    if (v < 27){\n      v += 27;\n    }\n    if (v != 27 && v != 28){\n      return address(0);\n    } else {\n        return ecrecover(keccak256(abi.encodePacked(\"\\x19Ethereum Signed Message:\\n32\", _hash)), v, r, s );\n    }\n  }\n}\n",
  "sourcePath": "/home/hayek/proj/bounties/contracts/BountiesMetaTxRelayer.sol",
  "compiler": {
    "name": "solc",
    "version": "0.5.16+commit.9c3226ce.Emscripten.clang"
  },
  "schemaVersion": "3.3.2",
  "updatedAt": "2020-11-24T15:59:54.474Z",
  "devdoc": {
    "methods": {}
  },
  "userdoc": {
    "methods": {}
  }
}