{
  "contractName": "BountiesMetaTxRelayer",
  "abi": [
    {
      "inputs": [
        {
          "internalType": "address",
          "name": "_contract",
          "type": "address"
        }
      ],
      "payable": false,
      "stateMutability": "nonpayable",
      "type": "constructor"
    },
    {
      "constant": true,
      "inputs": [],
      "name": "bountiesContract",
      "outputs": [
        {
          "internalType": "contract StandardBounties",
          "name": "",
          "type": "address"
        }
      ],
      "payable": false,
      "stateMutability": "view",
      "type": "function"
    },
    {
      "constant": true,
      "inputs": [
        {
          "internalType": "address",
          "name": "",
          "type": "address"
        }
      ],
      "name": "replayNonce",
      "outputs": [
        {
          "internalType": "uint256",
          "name": "",
          "type": "uint256"
        }
      ],
      "payable": false,
      "stateMutability": "view",
      "type": "function"
    },
    {
      "constant": false,
      "inputs": [
        {
          "internalType": "bytes",
          "name": "signature",
          "type": "bytes"
        },
        {
          "internalType": "address payable[]",
          "name": "_issuers",
          "type": "address[]"
        },
        {
          "internalType": "address[]",
          "name": "_approvers",
          "type": "address[]"
        },
        {
          "internalType": "string",
          "name": "_data",
          "type": "string"
        },
        {
          "internalType": "uint256",
          "name": "_deadline",
          "type": "uint256"
        },
        {
          "internalType": "address",
          "name": "_token",
          "type": "address"
        },
        {
          "internalType": "uint256",
          "name": "_tokenVersion",
          "type": "uint256"
        },
        {
          "internalType": "uint256",
          "name": "_nonce",
          "type": "uint256"
        }
      ],
      "name": "metaIssueBounty",
      "outputs": [
        {
          "internalType": "uint256",
          "name": "",
          "type": "uint256"
        }
      ],
      "payable": false,
      "stateMutability": "nonpayable",
      "type": "function"
    },
    {
      "constant": false,
      "inputs": [
        {
          "internalType": "bytes",
          "name": "signature",
          "type": "bytes"
        },
        {
          "internalType": "address payable[]",
          "name": "_issuers",
          "type": "address[]"
        },
        {
          "internalType": "address[]",
          "name": "_approvers",
          "type": "address[]"
        },
        {
          "internalType": "string",
          "name": "_data",
          "type": "string"
        },
        {
          "internalType": "uint256",
          "name": "_deadline",
          "type": "uint256"
        },
        {
          "internalType": "address",
          "name": "_token",
          "type": "address"
        },
        {
          "internalType": "uint256",
          "name": "_tokenVersion",
          "type": "uint256"
        },
        {
          "internalType": "uint256",
          "name": "_depositAmount",
          "type": "uint256"
        },
        {
          "internalType": "uint256",
          "name": "_nonce",
          "type": "uint256"
        }
      ],
      "name": "metaIssueAndContribute",
      "outputs": [
        {
          "internalType": "uint256",
          "name": "",
          "type": "uint256"
        }
      ],
      "payable": true,
      "stateMutability": "payable",
      "type": "function"
    },
    {
      "constant": false,
      "inputs": [
        {
          "internalType": "bytes",
          "name": "_signature",
          "type": "bytes"
        },
        {
          "internalType": "uint256",
          "name": "_bountyId",
          "type": "uint256"
        },
        {
          "internalType": "uint256",
          "name": "_amount",
          "type": "uint256"
        },
        {
          "internalType": "uint256",
          "name": "_nonce",
          "type": "uint256"
        }
      ],
      "name": "metaContribute",
      "outputs": [],
      "payable": true,
      "stateMutability": "payable",
      "type": "function"
    },
    {
      "constant": false,
      "inputs": [
        {
          "internalType": "bytes",
          "name": "_signature",
          "type": "bytes"
        },
        {
          "internalType": "uint256",
          "name": "_bountyId",
          "type": "uint256"
        },
        {
          "internalType": "uint256",
          "name": "_contributionId",
          "type": "uint256"
        },
        {
          "internalType": "uint256",
          "name": "_nonce",
          "type": "uint256"
        }
      ],
      "name": "metaRefundContribution",
      "outputs": [],
      "payable": false,
      "stateMutability": "nonpayable",
      "type": "function"
    },
    {
      "constant": false,
      "inputs": [
        {
          "internalType": "bytes",
          "name": "_signature",
          "type": "bytes"
        },
        {
          "internalType": "uint256",
          "name": "_bountyId",
          "type": "uint256"
        },
        {
          "internalType": "uint256[]",
          "name": "_contributionIds",
          "type": "uint256[]"
        },
        {
          "internalType": "uint256",
          "name": "_nonce",
          "type": "uint256"
        }
      ],
      "name": "metaRefundMyContributions",
      "outputs": [],
      "payable": false,
      "stateMutability": "nonpayable",
      "type": "function"
    },
    {
      "constant": false,
      "inputs": [
        {
          "internalType": "bytes",
          "name": "_signature",
          "type": "bytes"
        },
        {
          "internalType": "uint256",
          "name": "_bountyId",
          "type": "uint256"
        },
        {
          "internalType": "uint256",
          "name": "_issuerId",
          "type": "uint256"
        },
        {
          "internalType": "uint256[]",
          "name": "_contributionIds",
          "type": "uint256[]"
        },
        {
          "internalType": "uint256",
          "name": "_nonce",
          "type": "uint256"
        }
      ],
      "name": "metaRefundContributions",
      "outputs": [],
      "payable": false,
      "stateMutability": "nonpayable",
      "type": "function"
    },
    {
      "constant": false,
      "inputs": [
        {
          "internalType": "bytes",
          "name": "_signature",
          "type": "bytes"
        },
        {
          "internalType": "uint256",
          "name": "_bountyId",
          "type": "uint256"
        },
        {
          "internalType": "uint256",
          "name": "_issuerId",
          "type": "uint256"
        },
        {
          "internalType": "uint256[]",
          "name": "_amounts",
          "type": "uint256[]"
        },
        {
          "internalType": "uint256",
          "name": "_nonce",
          "type": "uint256"
        }
      ],
      "name": "metaDrainBounty",
      "outputs": [],
      "payable": false,
      "stateMutability": "nonpayable",
      "type": "function"
    },
    {
      "constant": false,
      "inputs": [
        {
          "internalType": "bytes",
          "name": "_signature",
          "type": "bytes"
        },
        {
          "internalType": "uint256",
          "name": "_bountyId",
          "type": "uint256"
        },
        {
          "internalType": "string",
          "name": "_data",
          "type": "string"
        },
        {
          "internalType": "uint256",
          "name": "_nonce",
          "type": "uint256"
        }
      ],
      "name": "metaPerformAction",
      "outputs": [],
      "payable": false,
      "stateMutability": "nonpayable",
      "type": "function"
    },
    {
      "constant": false,
      "inputs": [
        {
          "internalType": "bytes",
          "name": "_signature",
          "type": "bytes"
        },
        {
          "internalType": "uint256",
          "name": "_bountyId",
          "type": "uint256"
        },
        {
          "internalType": "address payable[]",
          "name": "_fulfillers",
          "type": "address[]"
        },
        {
          "internalType": "string",
          "name": "_data",
          "type": "string"
        },
        {
          "internalType": "uint256",
          "name": "_nonce",
          "type": "uint256"
        }
      ],
      "name": "metaFulfillBounty",
      "outputs": [],
      "payable": false,
      "stateMutability": "nonpayable",
      "type": "function"
    },
    {
      "constant": false,
      "inputs": [
        {
          "internalType": "bytes",
          "name": "_signature",
          "type": "bytes"
        },
        {
          "internalType": "uint256",
          "name": "_bountyId",
          "type": "uint256"
        },
        {
          "internalType": "uint256",
          "name": "_fulfillmentId",
          "type": "uint256"
        },
        {
          "internalType": "address payable[]",
          "name": "_fulfillers",
          "type": "address[]"
        },
        {
          "internalType": "string",
          "name": "_data",
          "type": "string"
        },
        {
          "internalType": "uint256",
          "name": "_nonce",
          "type": "uint256"
        }
      ],
      "name": "metaUpdateFulfillment",
      "outputs": [],
      "payable": false,
      "stateMutability": "nonpayable",
      "type": "function"
    },
    {
      "constant": false,
      "inputs": [
        {
          "internalType": "bytes",
          "name": "_signature",
          "type": "bytes"
        },
        {
          "internalType": "uint256",
          "name": "_bountyId",
          "type": "uint256"
        },
        {
          "internalType": "uint256",
          "name": "_fulfillmentId",
          "type": "uint256"
        },
        {
          "internalType": "uint256",
          "name": "_approverId",
          "type": "uint256"
        },
        {
          "internalType": "uint256[]",
          "name": "_tokenAmounts",
          "type": "uint256[]"
        },
        {
          "internalType": "uint256",
          "name": "_nonce",
          "type": "uint256"
        }
      ],
      "name": "metaAcceptFulfillment",
      "outputs": [],
      "payable": false,
      "stateMutability": "nonpayable",
      "type": "function"
    },
    {
      "constant": false,
      "inputs": [
        {
          "internalType": "bytes",
          "name": "_signature",
          "type": "bytes"
        },
        {
          "internalType": "uint256",
          "name": "_bountyId",
          "type": "uint256"
        },
        {
          "internalType": "address payable[]",
          "name": "_fulfillers",
          "type": "address[]"
        },
        {
          "internalType": "string",
          "name": "_data",
          "type": "string"
        },
        {
          "internalType": "uint256",
          "name": "_approverId",
          "type": "uint256"
        },
        {
          "internalType": "uint256[]",
          "name": "_tokenAmounts",
          "type": "uint256[]"
        },
        {
          "internalType": "uint256",
          "name": "_nonce",
          "type": "uint256"
        }
      ],
      "name": "metaFulfillAndAccept",
      "outputs": [],
      "payable": false,
      "stateMutability": "nonpayable",
      "type": "function"
    },
    {
      "constant": false,
      "inputs": [
        {
          "internalType": "bytes",
          "name": "_signature",
          "type": "bytes"
        },
        {
          "internalType": "uint256",
          "name": "_bountyId",
          "type": "uint256"
        },
        {
          "internalType": "uint256",
          "name": "_issuerId",
          "type": "uint256"
        },
        {
          "internalType": "address payable[]",
          "name": "_issuers",
          "type": "address[]"
        },
        {
          "internalType": "address payable[]",
          "name": "_approvers",
          "type": "address[]"
        },
        {
          "internalType": "string",
          "name": "_data",
          "type": "string"
        },
        {
          "internalType": "uint256",
          "name": "_deadline",
          "type": "uint256"
        },
        {
          "internalType": "uint256",
          "name": "_nonce",
          "type": "uint256"
        }
      ],
      "name": "metaChangeBounty",
      "outputs": [],
      "payable": false,
      "stateMutability": "nonpayable",
      "type": "function"
    },
    {
      "constant": false,
      "inputs": [
        {
          "internalType": "bytes",
          "name": "_signature",
          "type": "bytes"
        },
        {
          "internalType": "uint256",
          "name": "_bountyId",
          "type": "uint256"
        },
        {
          "internalType": "uint256",
          "name": "_issuerId",
          "type": "uint256"
        },
        {
          "internalType": "uint256",
          "name": "_issuerIdToChange",
          "type": "uint256"
        },
        {
          "internalType": "address payable",
          "name": "_newIssuer",
          "type": "address"
        },
        {
          "internalType": "uint256",
          "name": "_nonce",
          "type": "uint256"
        }
      ],
      "name": "metaChangeIssuer",
      "outputs": [],
      "payable": false,
      "stateMutability": "nonpayable",
      "type": "function"
    },
    {
      "constant": false,
      "inputs": [
        {
          "internalType": "bytes",
          "name": "_signature",
          "type": "bytes"
        },
        {
          "internalType": "uint256",
          "name": "_bountyId",
          "type": "uint256"
        },
        {
          "internalType": "uint256",
          "name": "_issuerId",
          "type": "uint256"
        },
        {
          "internalType": "uint256",
          "name": "_approverId",
          "type": "uint256"
        },
        {
          "internalType": "address payable",
          "name": "_approver",
          "type": "address"
        },
        {
          "internalType": "uint256",
          "name": "_nonce",
          "type": "uint256"
        }
      ],
      "name": "metaChangeApprover",
      "outputs": [],
      "payable": false,
      "stateMutability": "nonpayable",
      "type": "function"
    },
    {
      "constant": false,
      "inputs": [
        {
          "internalType": "bytes",
          "name": "_signature",
          "type": "bytes"
        },
        {
          "internalType": "uint256",
          "name": "_bountyId",
          "type": "uint256"
        },
        {
          "internalType": "uint256",
          "name": "_issuerId",
          "type": "uint256"
        },
        {
          "internalType": "string",
          "name": "_data",
          "type": "string"
        },
        {
          "internalType": "uint256",
          "name": "_nonce",
          "type": "uint256"
        }
      ],
      "name": "metaChangeData",
      "outputs": [],
      "payable": false,
      "stateMutability": "nonpayable",
      "type": "function"
    },
    {
      "constant": false,
      "inputs": [
        {
          "internalType": "bytes",
          "name": "_signature",
          "type": "bytes"
        },
        {
          "internalType": "uint256",
          "name": "_bountyId",
          "type": "uint256"
        },
        {
          "internalType": "uint256",
          "name": "_issuerId",
          "type": "uint256"
        },
        {
          "internalType": "uint256",
          "name": "_deadline",
          "type": "uint256"
        },
        {
          "internalType": "uint256",
          "name": "_nonce",
          "type": "uint256"
        }
      ],
      "name": "metaChangeDeadline",
      "outputs": [],
      "payable": false,
      "stateMutability": "nonpayable",
      "type": "function"
    },
    {
      "constant": false,
      "inputs": [
        {
          "internalType": "bytes",
          "name": "_signature",
          "type": "bytes"
        },
        {
          "internalType": "uint256",
          "name": "_bountyId",
          "type": "uint256"
        },
        {
          "internalType": "uint256",
          "name": "_issuerId",
          "type": "uint256"
        },
        {
          "internalType": "address payable[]",
          "name": "_issuers",
          "type": "address[]"
        },
        {
          "internalType": "uint256",
          "name": "_nonce",
          "type": "uint256"
        }
      ],
      "name": "metaAddIssuers",
      "outputs": [],
      "payable": false,
      "stateMutability": "nonpayable",
      "type": "function"
    },
    {
      "constant": false,
      "inputs": [
        {
          "internalType": "bytes",
          "name": "_signature",
          "type": "bytes"
        },
        {
          "internalType": "uint256",
          "name": "_bountyId",
          "type": "uint256"
        },
        {
          "internalType": "uint256",
          "name": "_issuerId",
          "type": "uint256"
        },
        {
          "internalType": "address[]",
          "name": "_approvers",
          "type": "address[]"
        },
        {
          "internalType": "uint256",
          "name": "_nonce",
          "type": "uint256"
        }
      ],
      "name": "metaAddApprovers",
      "outputs": [],
      "payable": false,
      "stateMutability": "nonpayable",
      "type": "function"
    }
  ],
  "bytecode": "0x60806040523480156200001157600080fd5b506040516200521338038062005213833981810160405262000037919081019062000095565b806000806101000a81548173ffffffffffffffffffffffffffffffffffffffff021916908373ffffffffffffffffffffffffffffffffffffffff160217905550506200010f565b6000815190506200008f81620000f5565b92915050565b600060208284031215620000a857600080fd5b6000620000b8848285016200007e565b91505092915050565b6000620000ce82620000d5565b9050919050565b600073ffffffffffffffffffffffffffffffffffffffff82169050919050565b6200010081620000c1565b81146200010c57600080fd5b50565b6150f4806200011f6000396000f3fe60806040526004361061012a5760003560e01c8063926b4e5f116100ab578063b1e6bcbb1161006f578063b1e6bcbb1461039f578063c353a38a146103cf578063dc5065a8146103f8578063df4015fc14610421578063ec34c4c01461045e578063fbb9e715146104875761012a565b8063926b4e5f146102d057806393ee9f4f146102f9578063a39da94214610322578063a84d579d1461034d578063ae96762d146103765761012a565b8063432326a9116100f2578063432326a9146101fc578063484621d514610218578063632ebc7b1461024157806367d407df1461026a5780637984dfe6146102a75761012a565b80630dd72a791461012f578063103cd44f14610158578063189002051461018157806332a7856d146101aa57806336bb9122146101d3575b600080fd5b34801561013b57600080fd5b5061015660048036036101519190810190612da6565b6104b0565b005b34801561016457600080fd5b5061017f600480360361017a9190810190613183565b61066a565b005b34801561018d57600080fd5b506101a860048036036101a391908101906133a2565b61081f565b005b3480156101b657600080fd5b506101d160048036036101cc919081019061361e565b6109cf565b005b3480156101df57600080fd5b506101fa60048036036101f59190810190613071565b610b7f565b005b61021660048036036102119190810190613449565b610d3e565b005b34801561022457600080fd5b5061023f600480360361023a9190810190612f37565b610f89565b005b34801561024d57600080fd5b5061026860048036036102639190810190612ea4565b611134565b005b34801561027657600080fd5b50610291600480360361028c9190810190612a86565b6112df565b60405161029e9190614d9c565b60405180910390f35b3480156102b357600080fd5b506102ce60048036036102c99190810190613565565b6112f7565b005b3480156102dc57600080fd5b506102f760048036036102f29190810190612fca565b6114ab565b005b34801561030557600080fd5b50610320600480360361031b9190810190613449565b61165b565b005b34801561032e57600080fd5b50610337611806565b6040516103449190614d81565b60405180910390f35b34801561035957600080fd5b50610374600480360361036f91908101906134c4565b61182b565b005b34801561038257600080fd5b5061039d600480360361039891908101906132fb565b6119e0565b005b6103b960048036036103b49190810190612bc1565b611b90565b6040516103c69190614d9c565b60405180910390f35b3480156103db57600080fd5b506103f660048036036103f19190810190613254565b611e47565b005b34801561040457600080fd5b5061041f600480360361041a91908101906134c4565b611ff7565b005b34801561042d57600080fd5b5061044860048036036104439190810190612aaf565b6121ac565b6040516104559190614d9c565b60405180910390f35b34801561046a57600080fd5b5061048560048036036104809190810190612ce7565b612390565b005b34801561049357600080fd5b506104ae60048036036104a991908101906132fb565b612561565b005b6000308787878787876040516020016104cf97969594939291906146d3565b60405160208183030381529060405280519060200120905060006104f3828a612711565b9050600073ffffffffffffffffffffffffffffffffffffffff168173ffffffffffffffffffffffffffffffffffffffff16141561052f57600080fd5b600160008273ffffffffffffffffffffffffffffffffffffffff1673ffffffffffffffffffffffffffffffffffffffff16815260200190815260200160002054831461057a57600080fd5b600160008273ffffffffffffffffffffffffffffffffffffffff1673ffffffffffffffffffffffffffffffffffffffff168152602001908152602001600020600081548092919060010191905055506000809054906101000a900473ffffffffffffffffffffffffffffffffffffffff1673ffffffffffffffffffffffffffffffffffffffff1663c22215b8828a8a8a8a8a6040518763ffffffff1660e01b815260040161062d9695949392919061490c565b600060405180830381600087803b15801561064757600080fd5b505af115801561065b573d6000803e3d6000fd5b50505050505050505050505050565b60003086868686866040516020016106879695949392919061476b565b60405160208183030381529060405280519060200120905060006106ab8289612711565b9050600073ffffffffffffffffffffffffffffffffffffffff168173ffffffffffffffffffffffffffffffffffffffff1614156106e757600080fd5b600160008273ffffffffffffffffffffffffffffffffffffffff1673ffffffffffffffffffffffffffffffffffffffff16815260200190815260200160002054831461073257600080fd5b600160008273ffffffffffffffffffffffffffffffffffffffff1673ffffffffffffffffffffffffffffffffffffffff168152602001908152602001600020600081548092919060010191905055506000809054906101000a900473ffffffffffffffffffffffffffffffffffffffff1673ffffffffffffffffffffffffffffffffffffffff1663c496045082898989896040518663ffffffff1660e01b81526004016107e3959493929190614b51565b600060405180830381600087803b1580156107fd57600080fd5b505af1158015610811573d6000803e3d6000fd5b505050505050505050505050565b6000308585858560405160200161083a9594939291906142e8565b604051602081830303815290604052805190602001209050600061085e8288612711565b9050600073ffffffffffffffffffffffffffffffffffffffff168173ffffffffffffffffffffffffffffffffffffffff16141561089a57600080fd5b600160008273ffffffffffffffffffffffffffffffffffffffff1673ffffffffffffffffffffffffffffffffffffffff1681526020019081526020016000205483146108e557600080fd5b600160008273ffffffffffffffffffffffffffffffffffffffff1673ffffffffffffffffffffffffffffffffffffffff168152602001908152602001600020600081548092919060010191905055506000809054906101000a900473ffffffffffffffffffffffffffffffffffffffff1673ffffffffffffffffffffffffffffffffffffffff16637ef8213c828888886040518563ffffffff1660e01b81526004016109949493929190614bfe565b600060405180830381600087803b1580156109ae57600080fd5b505af11580156109c2573d6000803e3d6000fd5b5050505050505050505050565b600030858585856040516020016109ea959493929190614470565b6040516020818303038152906040528051906020012090506000610a0e8288612711565b9050600073ffffffffffffffffffffffffffffffffffffffff168173ffffffffffffffffffffffffffffffffffffffff161415610a4a57600080fd5b600160008273ffffffffffffffffffffffffffffffffffffffff1673ffffffffffffffffffffffffffffffffffffffff168152602001908152602001600020548314610a9557600080fd5b600160008273ffffffffffffffffffffffffffffffffffffffff1673ffffffffffffffffffffffffffffffffffffffff168152602001908152602001600020600081548092919060010191905055506000809054906101000a900473ffffffffffffffffffffffffffffffffffffffff1673ffffffffffffffffffffffffffffffffffffffff1663aa17aaef828888886040518563ffffffff1660e01b8152600401610b449493929190614c4a565b600060405180830381600087803b158015610b5e57600080fd5b505af1158015610b72573d6000803e3d6000fd5b5050505050505050505050565b60003088888888888888604051602001610ba0989796959493929190613fcf565b6040516020818303038152906040528051906020012090506000610bc4828b612711565b9050600073ffffffffffffffffffffffffffffffffffffffff168173ffffffffffffffffffffffffffffffffffffffff161415610c0057600080fd5b600160008273ffffffffffffffffffffffffffffffffffffffff1673ffffffffffffffffffffffffffffffffffffffff168152602001908152602001600020548314610c4b57600080fd5b600160008273ffffffffffffffffffffffffffffffffffffffff1673ffffffffffffffffffffffffffffffffffffffff168152602001908152602001600020600081548092919060010191905055506000809054906101000a900473ffffffffffffffffffffffffffffffffffffffff1673ffffffffffffffffffffffffffffffffffffffff1663b178d768828b8b8b8b8b8b6040518863ffffffff1660e01b8152600401610d009796959493929190614acd565b600060405180830381600087803b158015610d1a57600080fd5b505af1158015610d2e573d6000803e3d6000fd5b5050505050505050505050505050565b600030848484604051602001610d57949392919061421c565b6040516020818303038152906040528051906020012090506000610d7b8287612711565b9050600073ffffffffffffffffffffffffffffffffffffffff168173ffffffffffffffffffffffffffffffffffffffff161415610db757600080fd5b600160008273ffffffffffffffffffffffffffffffffffffffff1673ffffffffffffffffffffffffffffffffffffffff168152602001908152602001600020548314610e0257600080fd5b600160008273ffffffffffffffffffffffffffffffffffffffff1673ffffffffffffffffffffffffffffffffffffffff168152602001908152602001600020600081548092919060010191905055506000341115610ef0576000809054906101000a900473ffffffffffffffffffffffffffffffffffffffff1673ffffffffffffffffffffffffffffffffffffffff1663a08f793c348388886040518563ffffffff1660e01b8152600401610eb993929190613f4c565b6000604051808303818588803b158015610ed257600080fd5b505af1158015610ee6573d6000803e3d6000fd5b5050505050610f81565b6000809054906101000a900473ffffffffffffffffffffffffffffffffffffffff1673ffffffffffffffffffffffffffffffffffffffff1663a08f793c8287876040518463ffffffff1660e01b8152600401610f4e93929190613f4c565b600060405180830381600087803b158015610f6857600080fd5b505af1158015610f7c573d6000803e3d6000fd5b505050505b505050505050565b600030848484604051602001610fa294939291906141bd565b6040516020818303038152906040528051906020012090506000610fc68287612711565b9050600073ffffffffffffffffffffffffffffffffffffffff168173ffffffffffffffffffffffffffffffffffffffff16141561100257600080fd5b600160008273ffffffffffffffffffffffffffffffffffffffff1673ffffffffffffffffffffffffffffffffffffffff16815260200190815260200160002054831461104d57600080fd5b600160008273ffffffffffffffffffffffffffffffffffffffff1673ffffffffffffffffffffffffffffffffffffffff168152602001908152602001600020600081548092919060010191905055506000809054906101000a900473ffffffffffffffffffffffffffffffffffffffff1673ffffffffffffffffffffffffffffffffffffffff16634ac4e25a8287876040518463ffffffff1660e01b81526004016110fa939291906149c0565b600060405180830381600087803b15801561111457600080fd5b505af1158015611128573d6000803e3d6000fd5b50505050505050505050565b60003084848460405160200161114d94939291906147ed565b60405160208183030381529060405280519060200120905060006111718287612711565b9050600073ffffffffffffffffffffffffffffffffffffffff168173ffffffffffffffffffffffffffffffffffffffff1614156111ad57600080fd5b600160008273ffffffffffffffffffffffffffffffffffffffff1673ffffffffffffffffffffffffffffffffffffffff1681526020019081526020016000205483146111f857600080fd5b600160008273ffffffffffffffffffffffffffffffffffffffff1673ffffffffffffffffffffffffffffffffffffffff168152602001908152602001600020600081548092919060010191905055506000809054906101000a900473ffffffffffffffffffffffffffffffffffffffff1673ffffffffffffffffffffffffffffffffffffffff1663edba70138287876040518463ffffffff1660e01b81526004016112a593929190614982565b600060405180830381600087803b1580156112bf57600080fd5b505af11580156112d3573d6000803e3d6000fd5b50505050505050505050565b60016020528060005260406000206000915090505481565b6000308686868686604051602001611314969594939291906145a2565b60405160208183030381529060405280519060200120905060006113388289612711565b9050600073ffffffffffffffffffffffffffffffffffffffff168173ffffffffffffffffffffffffffffffffffffffff16141561137457600080fd5b600160008273ffffffffffffffffffffffffffffffffffffffff1673ffffffffffffffffffffffffffffffffffffffff1681526020019081526020016000205483146113bf57600080fd5b600160008273ffffffffffffffffffffffffffffffffffffffff1673ffffffffffffffffffffffffffffffffffffffff168152602001908152602001600020600081548092919060010191905055506000809054906101000a900473ffffffffffffffffffffffffffffffffffffffff1673ffffffffffffffffffffffffffffffffffffffff1662f27e3882898989896040518663ffffffff1660e01b815260040161146f959493929190614ce2565b600060405180830381600087803b15801561148957600080fd5b505af115801561149d573d6000803e3d6000fd5b505050505050505050505050565b600030858585856040516020016114c6959493929190614076565b60405160208183030381529060405280519060200120905060006114ea8288612711565b9050600073ffffffffffffffffffffffffffffffffffffffff168173ffffffffffffffffffffffffffffffffffffffff16141561152657600080fd5b600160008273ffffffffffffffffffffffffffffffffffffffff1673ffffffffffffffffffffffffffffffffffffffff16815260200190815260200160002054831461157157600080fd5b600160008273ffffffffffffffffffffffffffffffffffffffff1673ffffffffffffffffffffffffffffffffffffffff168152602001908152602001600020600081548092919060010191905055506000809054906101000a900473ffffffffffffffffffffffffffffffffffffffff1673ffffffffffffffffffffffffffffffffffffffff16634daf1bb5828888886040518563ffffffff1660e01b81526004016116209493929190614a35565b600060405180830381600087803b15801561163a57600080fd5b505af115801561164e573d6000803e3d6000fd5b5050505050505050505050565b600030848484604051602001611674949392919061454a565b60405160208183030381529060405280519060200120905060006116988287612711565b9050600073ffffffffffffffffffffffffffffffffffffffff168173ffffffffffffffffffffffffffffffffffffffff1614156116d457600080fd5b600160008273ffffffffffffffffffffffffffffffffffffffff1673ffffffffffffffffffffffffffffffffffffffff16815260200190815260200160002054831461171f57600080fd5b600160008273ffffffffffffffffffffffffffffffffffffffff1673ffffffffffffffffffffffffffffffffffffffff168152602001908152602001600020600081548092919060010191905055506000809054906101000a900473ffffffffffffffffffffffffffffffffffffffff1673ffffffffffffffffffffffffffffffffffffffff166393c1ccc98287876040518463ffffffff1660e01b81526004016117cc939291906149fe565b600060405180830381600087803b1580156117e657600080fd5b505af11580156117fa573d6000803e3d6000fd5b50505050505050505050565b6000809054906101000a900473ffffffffffffffffffffffffffffffffffffffff1681565b6000308686868686604051602001611848969594939291906144d6565b604051602081830303815290604052805190602001209050600061186c8289612711565b9050600073ffffffffffffffffffffffffffffffffffffffff168173ffffffffffffffffffffffffffffffffffffffff1614156118a857600080fd5b600160008273ffffffffffffffffffffffffffffffffffffffff1673ffffffffffffffffffffffffffffffffffffffff1681526020019081526020016000205483146118f357600080fd5b600160008273ffffffffffffffffffffffffffffffffffffffff1673ffffffffffffffffffffffffffffffffffffffff168152602001908152602001600020600081548092919060010191905055506000809054906101000a900473ffffffffffffffffffffffffffffffffffffffff1673ffffffffffffffffffffffffffffffffffffffff16632092e25982898989896040518663ffffffff1660e01b81526004016119a4959493929190614c8f565b600060405180830381600087803b1580156119be57600080fd5b505af11580156119d2573d6000803e3d6000fd5b505050505050505050505050565b600030858585856040516020016119fb9594939291906140e3565b6040516020818303038152906040528051906020012090506000611a1f8288612711565b9050600073ffffffffffffffffffffffffffffffffffffffff168173ffffffffffffffffffffffffffffffffffffffff161415611a5b57600080fd5b600160008273ffffffffffffffffffffffffffffffffffffffff1673ffffffffffffffffffffffffffffffffffffffff168152602001908152602001600020548314611aa657600080fd5b600160008273ffffffffffffffffffffffffffffffffffffffff1673ffffffffffffffffffffffffffffffffffffffff168152602001908152602001600020600081548092919060010191905055506000809054906101000a900473ffffffffffffffffffffffffffffffffffffffff1673ffffffffffffffffffffffffffffffffffffffff16633756f3c8828888886040518563ffffffff1660e01b8152600401611b559493929190613f83565b600060405180830381600087803b158015611b6f57600080fd5b505af1158015611b83573d6000803e3d6000fd5b5050505050505050505050565b600080308a8a8a8a8a8a8a8a604051602001611bb49998979695949392919061461d565b6040516020818303038152906040528051906020012090506000611bd8828d612711565b9050600073ffffffffffffffffffffffffffffffffffffffff168173ffffffffffffffffffffffffffffffffffffffff161415611c1457600080fd5b600160008273ffffffffffffffffffffffffffffffffffffffff1673ffffffffffffffffffffffffffffffffffffffff168152602001908152602001600020548414611c5f57600080fd5b600160008273ffffffffffffffffffffffffffffffffffffffff1673ffffffffffffffffffffffffffffffffffffffff168152602001908152602001600020600081548092919060010191905055506000341115611d7b576000809054906101000a900473ffffffffffffffffffffffffffffffffffffffff1673ffffffffffffffffffffffffffffffffffffffff166306060ae334838e8e8e8e8e8e8e6040518a63ffffffff1660e01b8152600401611d20989796959493929190613eb9565b6020604051808303818588803b158015611d3957600080fd5b505af1158015611d4d573d6000803e3d6000fd5b50505050506040513d601f19601f82011682018060405250611d7291908101906136ad565b92505050611e3a565b6000809054906101000a900473ffffffffffffffffffffffffffffffffffffffff1673ffffffffffffffffffffffffffffffffffffffff166306060ae3828d8d8d8d8d8d8d6040518963ffffffff1660e01b8152600401611de3989796959493929190613eb9565b602060405180830381600087803b158015611dfd57600080fd5b505af1158015611e11573d6000803e3d6000fd5b505050506040513d601f19601f82011682018060405250611e3591908101906136ad565b925050505b9998505050505050505050565b60003085858585604051602001611e6295949392919061484c565b6040516020818303038152906040528051906020012090506000611e868288612711565b9050600073ffffffffffffffffffffffffffffffffffffffff168173ffffffffffffffffffffffffffffffffffffffff161415611ec257600080fd5b600160008273ffffffffffffffffffffffffffffffffffffffff1673ffffffffffffffffffffffffffffffffffffffff168152602001908152602001600020548314611f0d57600080fd5b600160008273ffffffffffffffffffffffffffffffffffffffff1673ffffffffffffffffffffffffffffffffffffffff168152602001908152602001600020600081548092919060010191905055506000809054906101000a900473ffffffffffffffffffffffffffffffffffffffff1673ffffffffffffffffffffffffffffffffffffffff1663c6a8b42b828888886040518563ffffffff1660e01b8152600401611fbc9493929190614a81565b600060405180830381600087803b158015611fd657600080fd5b505af1158015611fea573d6000803e3d6000fd5b5050505050505050505050565b600030868686868660405160200161201496959493929190614274565b60405160208183030381529060405280519060200120905060006120388289612711565b9050600073ffffffffffffffffffffffffffffffffffffffff168173ffffffffffffffffffffffffffffffffffffffff16141561207457600080fd5b600160008273ffffffffffffffffffffffffffffffffffffffff1673ffffffffffffffffffffffffffffffffffffffff1681526020019081526020016000205483146120bf57600080fd5b600160008273ffffffffffffffffffffffffffffffffffffffff1673ffffffffffffffffffffffffffffffffffffffff168152602001908152602001600020600081548092919060010191905055506000809054906101000a900473ffffffffffffffffffffffffffffffffffffffff1673ffffffffffffffffffffffffffffffffffffffff16639e64d9bf82898989896040518663ffffffff1660e01b8152600401612170959493929190614c8f565b600060405180830381600087803b15801561218a57600080fd5b505af115801561219e573d6000803e3d6000fd5b505050505050505050505050565b60008030898989898989896040516020016121ce9897969594939291906143c9565b60405160208183030381529060405280519060200120905060006121f2828c612711565b9050600073ffffffffffffffffffffffffffffffffffffffff168173ffffffffffffffffffffffffffffffffffffffff16141561222e57600080fd5b600160008273ffffffffffffffffffffffffffffffffffffffff1673ffffffffffffffffffffffffffffffffffffffff16815260200190815260200160002054841461227957600080fd5b600160008273ffffffffffffffffffffffffffffffffffffffff1673ffffffffffffffffffffffffffffffffffffffff168152602001908152602001600020600081548092919060010191905055506000809054906101000a900473ffffffffffffffffffffffffffffffffffffffff1673ffffffffffffffffffffffffffffffffffffffff1663567b3d2e828c8c8c8c8c8c6040518863ffffffff1660e01b815260040161232e9796959493929190613e35565b602060405180830381600087803b15801561234857600080fd5b505af115801561235c573d6000803e3d6000fd5b505050506040513d601f19601f8201168201806040525061238091908101906136ad565b9250505098975050505050505050565b600030858585856040516020016123ab959493929190614355565b60405160208183030381529060405280519060200120905060006123cf8288612711565b9050600073ffffffffffffffffffffffffffffffffffffffff168173ffffffffffffffffffffffffffffffffffffffff16141561240b57600080fd5b600160008273ffffffffffffffffffffffffffffffffffffffff1673ffffffffffffffffffffffffffffffffffffffff16815260200190815260200160002054831461245657600080fd5b600160008273ffffffffffffffffffffffffffffffffffffffff1673ffffffffffffffffffffffffffffffffffffffff168152602001908152602001600020600081548092919060010191905055506000809054906101000a900473ffffffffffffffffffffffffffffffffffffffff1673ffffffffffffffffffffffffffffffffffffffff166397d76665828888886040518563ffffffff1660e01b815260040161250594939291906148b9565b602060405180830381600087803b15801561251f57600080fd5b505af1158015612533573d6000803e3d6000fd5b505050506040513d601f19601f8201168201806040525061255791908101906136ad565b5050505050505050565b6000308585858560405160200161257c959493929190614150565b60405160208183030381529060405280519060200120905060006125a08288612711565b9050600073ffffffffffffffffffffffffffffffffffffffff168173ffffffffffffffffffffffffffffffffffffffff1614156125dc57600080fd5b600160008273ffffffffffffffffffffffffffffffffffffffff1673ffffffffffffffffffffffffffffffffffffffff16815260200190815260200160002054831461262757600080fd5b600160008273ffffffffffffffffffffffffffffffffffffffff1673ffffffffffffffffffffffffffffffffffffffff168152602001908152602001600020600081548092919060010191905055506000809054906101000a900473ffffffffffffffffffffffffffffffffffffffff1673ffffffffffffffffffffffffffffffffffffffff1663a071fbd5828888886040518563ffffffff1660e01b81526004016126d69493929190614bb2565b600060405180830381600087803b1580156126f057600080fd5b505af1158015612704573d6000803e3d6000fd5b5050505050505050505050565b600080600080604185511461272c57600093505050506127fb565b6020850151925060408501519150606085015160001a9050601b8160ff16101561275757601b810190505b601b8160ff161415801561276f5750601c8160ff1614155b1561278057600093505050506127fb565b6001866040516020016127939190613e0f565b60405160208183030381529060405280519060200120828585604051600081526020016040526040516127c99493929190614d3c565b6020604051602081039080840390855afa1580156127eb573d6000803e3d6000fd5b5050506020604051035193505050505b92915050565b6000813590506128108161506c565b92915050565b60008135905061282581615083565b92915050565b600082601f83011261283c57600080fd5b813561284f61284a82614de4565b614db7565b9150818183526020840193506020810190508385602084028201111561287457600080fd5b60005b838110156128a4578161288a8882612801565b845260208401935060208301925050600181019050612877565b5050505092915050565b600082601f8301126128bf57600080fd5b81356128d26128cd82614e0c565b614db7565b915081818352602084019350602081019050838560208402820111156128f757600080fd5b60005b83811015612927578161290d8882612816565b8452602084019350602083019250506001810190506128fa565b5050505092915050565b600082601f83011261294257600080fd5b813561295561295082614e34565b614db7565b9150818183526020840193506020810190508385602084028201111561297a57600080fd5b60005b838110156129aa57816129908882612a5c565b84526020840193506020830192505060018101905061297d565b5050505092915050565b600082601f8301126129c557600080fd5b81356129d86129d382614e5c565b614db7565b915080825260208301602083018583830111156129f457600080fd5b6129ff83828461500f565b50505092915050565b600082601f830112612a1957600080fd5b8135612a2c612a2782614e88565b614db7565b91508082526020830160208301858383011115612a4857600080fd5b612a5383828461500f565b50505092915050565b600081359050612a6b8161509a565b92915050565b600081519050612a808161509a565b92915050565b600060208284031215612a9857600080fd5b6000612aa684828501612801565b91505092915050565b600080600080600080600080610100898b031215612acc57600080fd5b600089013567ffffffffffffffff811115612ae657600080fd5b612af28b828c016129b4565b985050602089013567ffffffffffffffff811115612b0f57600080fd5b612b1b8b828c016128ae565b975050604089013567ffffffffffffffff811115612b3857600080fd5b612b448b828c0161282b565b965050606089013567ffffffffffffffff811115612b6157600080fd5b612b6d8b828c01612a08565b9550506080612b7e8b828c01612a5c565b94505060a0612b8f8b828c01612801565b93505060c0612ba08b828c01612a5c565b92505060e0612bb18b828c01612a5c565b9150509295985092959890939650565b60008060008060008060008060006101208a8c031215612be057600080fd5b60008a013567ffffffffffffffff811115612bfa57600080fd5b612c068c828d016129b4565b99505060208a013567ffffffffffffffff811115612c2357600080fd5b612c2f8c828d016128ae565b98505060408a013567ffffffffffffffff811115612c4c57600080fd5b612c588c828d0161282b565b97505060608a013567ffffffffffffffff811115612c7557600080fd5b612c818c828d01612a08565b9650506080612c928c828d01612a5c565b95505060a0612ca38c828d01612801565b94505060c0612cb48c828d01612a5c565b93505060e0612cc58c828d01612a5c565b925050610100612cd78c828d01612a5c565b9150509295985092959850929598565b600080600080600060a08688031215612cff57600080fd5b600086013567ffffffffffffffff811115612d1957600080fd5b612d25888289016129b4565b9550506020612d3688828901612a5c565b945050604086013567ffffffffffffffff811115612d5357600080fd5b612d5f888289016128ae565b935050606086013567ffffffffffffffff811115612d7c57600080fd5b612d8888828901612a08565b9250506080612d9988828901612a5c565b9150509295509295909350565b600080600080600080600060e0888a031215612dc157600080fd5b600088013567ffffffffffffffff811115612ddb57600080fd5b612de78a828b016129b4565b9750506020612df88a828b01612a5c565b965050604088013567ffffffffffffffff811115612e1557600080fd5b612e218a828b016128ae565b955050606088013567ffffffffffffffff811115612e3e57600080fd5b612e4a8a828b01612a08565b9450506080612e5b8a828b01612a5c565b93505060a088013567ffffffffffffffff811115612e7857600080fd5b612e848a828b01612931565b92505060c0612e958a828b01612a5c565b91505092959891949750929550565b60008060008060808587031215612eba57600080fd5b600085013567ffffffffffffffff811115612ed457600080fd5b612ee0878288016129b4565b9450506020612ef187828801612a5c565b935050604085013567ffffffffffffffff811115612f0e57600080fd5b612f1a87828801612931565b9250506060612f2b87828801612a5c565b91505092959194509250565b60008060008060808587031215612f4d57600080fd5b600085013567ffffffffffffffff811115612f6757600080fd5b612f73878288016129b4565b9450506020612f8487828801612a5c565b935050604085013567ffffffffffffffff811115612fa157600080fd5b612fad87828801612a08565b9250506060612fbe87828801612a5c565b91505092959194509250565b600080600080600060a08688031215612fe257600080fd5b600086013567ffffffffffffffff811115612ffc57600080fd5b613008888289016129b4565b955050602061301988828901612a5c565b945050604061302a88828901612a5c565b935050606086013567ffffffffffffffff81111561304757600080fd5b6130538882890161282b565b925050608061306488828901612a5c565b9150509295509295909350565b600080600080600080600080610100898b03121561308e57600080fd5b600089013567ffffffffffffffff8111156130a857600080fd5b6130b48b828c016129b4565b98505060206130c58b828c01612a5c565b97505060406130d68b828c01612a5c565b965050606089013567ffffffffffffffff8111156130f357600080fd5b6130ff8b828c016128ae565b955050608089013567ffffffffffffffff81111561311c57600080fd5b6131288b828c016128ae565b94505060a089013567ffffffffffffffff81111561314557600080fd5b6131518b828c01612a08565b93505060c06131628b828c01612a5c565b92505060e06131738b828c01612a5c565b9150509295985092959890939650565b60008060008060008060c0878903121561319c57600080fd5b600087013567ffffffffffffffff8111156131b657600080fd5b6131c289828a016129b4565b96505060206131d389828a01612a5c565b95505060406131e489828a01612a5c565b945050606087013567ffffffffffffffff81111561320157600080fd5b61320d89828a016128ae565b935050608087013567ffffffffffffffff81111561322a57600080fd5b61323689828a01612a08565b92505060a061324789828a01612a5c565b9150509295509295509295565b600080600080600060a0868803121561326c57600080fd5b600086013567ffffffffffffffff81111561328657600080fd5b613292888289016129b4565b95505060206132a388828901612a5c565b94505060406132b488828901612a5c565b935050606086013567ffffffffffffffff8111156132d157600080fd5b6132dd888289016128ae565b92505060806132ee88828901612a5c565b9150509295509295909350565b600080600080600060a0868803121561331357600080fd5b600086013567ffffffffffffffff81111561332d57600080fd5b613339888289016129b4565b955050602061334a88828901612a5c565b945050604061335b88828901612a5c565b935050606086013567ffffffffffffffff81111561337857600080fd5b61338488828901612931565b925050608061339588828901612a5c565b9150509295509295909350565b600080600080600060a086880312156133ba57600080fd5b600086013567ffffffffffffffff8111156133d457600080fd5b6133e0888289016129b4565b95505060206133f188828901612a5c565b945050604061340288828901612a5c565b935050606086013567ffffffffffffffff81111561341f57600080fd5b61342b88828901612a08565b925050608061343c88828901612a5c565b9150509295509295909350565b6000806000806080858703121561345f57600080fd5b600085013567ffffffffffffffff81111561347957600080fd5b613485878288016129b4565b945050602061349687828801612a5c565b93505060406134a787828801612a5c565b92505060606134b887828801612a5c565b91505092959194509250565b60008060008060008060c087890312156134dd57600080fd5b600087013567ffffffffffffffff8111156134f757600080fd5b61350389828a016129b4565b965050602061351489828a01612a5c565b955050604061352589828a01612a5c565b945050606061353689828a01612a5c565b935050608061354789828a01612816565b92505060a061355889828a01612a5c565b9150509295509295509295565b60008060008060008060c0878903121561357e57600080fd5b600087013567ffffffffffffffff81111561359857600080fd5b6135a489828a016129b4565b96505060206135b589828a01612a5c565b95505060406135c689828a01612a5c565b94505060606135d789828a01612a5c565b935050608087013567ffffffffffffffff8111156135f457600080fd5b61360089828a01612931565b92505060a061361189828a01612a5c565b9150509295509295509295565b600080600080600060a0868803121561363657600080fd5b600086013567ffffffffffffffff81111561365057600080fd5b61365c888289016129b4565b955050602061366d88828901612a5c565b945050604061367e88828901612a5c565b935050606061368f88828901612a5c565b92505060806136a088828901612a5c565b9150509295509295909350565b6000602082840312156136bf57600080fd5b60006136cd84828501612a71565b91505092915050565b60006136e2838361371e565b60208301905092915050565b60006136fa838361373c565b60208301905092915050565b60006137128383613de2565b60208301905092915050565b61372781614f98565b82525050565b61373681614f98565b82525050565b61374581614f86565b82525050565b61375481614f86565b82525050565b600061376582614ee4565b61376f8185614f37565b935061377a83614eb4565b8060005b838110156137ab57815161379288826136ee565b975061379d83614f10565b92505060018101905061377e565b5085935050505092915050565b60006137c382614eef565b6137cd8185614f48565b93506137d883614ec4565b8060005b838110156138095781516137f088826136d6565b97506137fb83614f1d565b9250506001810190506137dc565b5085935050505092915050565b600061382182614efa565b61382b8185614f59565b935061383683614ed4565b8060005b8381101561386757815161384e8882613706565b975061385983614f2a565b92505060018101905061383a565b5085935050505092915050565b61387d81614faa565b82525050565b61389461388f82614faa565b615051565b82525050565b6138a381614feb565b82525050565b60006138b482614f05565b6138be8185614f6a565b93506138ce81856020860161501e565b6138d78161505b565b840191505092915050565b60006138ef601c83614f7b565b91507f19457468657265756d205369676e6564204d6573736167653a0a3332000000006000830152601c82019050919050565b600061392f601083614f6a565b91507f6d6574614368616e6765426f756e7479000000000000000000000000000000006000830152602082019050919050565b600061396f601083614f6a565b91507f6d657461416464417070726f76657273000000000000000000000000000000006000830152602082019050919050565b60006139af600f83614f6a565b91507f6d657461447261696e426f756e747900000000000000000000000000000000006000830152602082019050919050565b60006139ef601783614f6a565b91507f6d657461526566756e64436f6e747269627574696f6e730000000000000000006000830152602082019050919050565b6000613a2f601183614f6a565b91507f6d657461506572666f726d416374696f6e0000000000000000000000000000006000830152602082019050919050565b6000613a6f600e83614f6a565b91507f6d657461436f6e747269627574650000000000000000000000000000000000006000830152602082019050919050565b6000613aaf601083614f6a565b91507f6d6574614368616e6765497373756572000000000000000000000000000000006000830152602082019050919050565b6000613aef600e83614f6a565b91507f6d6574614368616e6765446174610000000000000000000000000000000000006000830152602082019050919050565b6000613b2f601183614f6a565b91507f6d65746146756c66696c6c426f756e74790000000000000000000000000000006000830152602082019050919050565b6000613b6f600f83614f6a565b91507f6d6574614973737565426f756e747900000000000000000000000000000000006000830152602082019050919050565b6000613baf601283614f6a565b91507f6d6574614368616e6765446561646c696e6500000000000000000000000000006000830152602082019050919050565b6000613bef601283614f6a565b91507f6d6574614368616e6765417070726f76657200000000000000000000000000006000830152602082019050919050565b6000613c2f601683614f6a565b91507f6d657461526566756e64436f6e747269627574696f6e000000000000000000006000830152602082019050919050565b6000613c6f601583614f6a565b91507f6d65746141636365707446756c66696c6c6d656e7400000000000000000000006000830152602082019050919050565b6000613caf601683614f6a565b91507f6d6574614973737565416e64436f6e74726962757465000000000000000000006000830152602082019050919050565b6000613cef601483614f6a565b91507f6d65746146756c66696c6c416e644163636570740000000000000000000000006000830152602082019050919050565b6000613d2f601583614f6a565b91507f6d65746155706461746546756c66696c6c6d656e7400000000000000000000006000830152602082019050919050565b6000613d6f601983614f6a565b91507f6d657461526566756e644d79436f6e747269627574696f6e73000000000000006000830152602082019050919050565b6000613daf600e83614f6a565b91507f6d657461416464497373756572730000000000000000000000000000000000006000830152602082019050919050565b613deb81614fd4565b82525050565b613dfa81614fd4565b82525050565b613e0981614fde565b82525050565b6000613e1a826138e2565b9150613e268284613883565b60208201915081905092915050565b600060e082019050613e4a600083018a61372d565b8181036020830152613e5c81896137b8565b90508181036040830152613e70818861375a565b90508181036060830152613e8481876138a9565b9050613e936080830186613df1565b613ea060a083018561374b565b613ead60c0830184613df1565b98975050505050505050565b600061010082019050613ecf600083018b61372d565b8181036020830152613ee1818a6137b8565b90508181036040830152613ef5818961375a565b90508181036060830152613f0981886138a9565b9050613f186080830187613df1565b613f2560a083018661374b565b613f3260c0830185613df1565b613f3f60e0830184613df1565b9998505050505050505050565b6000606082019050613f61600083018661372d565b613f6e6020830185613df1565b613f7b6040830184613df1565b949350505050565b6000608082019050613f98600083018761372d565b613fa56020830186613df1565b613fb26040830185613df1565b8181036060830152613fc48184613816565b905095945050505050565b600061012082019050613fe5600083018b61374b565b8181036020830152613ff681613922565b9050614005604083018a613df1565b6140126060830189613df1565b818103608083015261402481886137b8565b905081810360a083015261403881876137b8565b905081810360c083015261404c81866138a9565b905061405b60e0830185613df1565b614069610100830184613df1565b9998505050505050505050565b600060c08201905061408b600083018861374b565b818103602083015261409c81613962565b90506140ab6040830187613df1565b6140b86060830186613df1565b81810360808301526140ca818561375a565b90506140d960a0830184613df1565b9695505050505050565b600060c0820190506140f8600083018861374b565b8181036020830152614109816139a2565b90506141186040830187613df1565b6141256060830186613df1565b81810360808301526141378185613816565b905061414660a0830184613df1565b9695505050505050565b600060c082019050614165600083018861374b565b8181036020830152614176816139e2565b90506141856040830187613df1565b6141926060830186613df1565b81810360808301526141a48185613816565b90506141b360a0830184613df1565b9695505050505050565b600060a0820190506141d2600083018761374b565b81810360208301526141e381613a22565b90506141f26040830186613df1565b818103606083015261420481856138a9565b90506142136080830184613df1565b95945050505050565b600060a082019050614231600083018761374b565b818103602083015261424281613a62565b90506142516040830186613df1565b61425e6060830185613df1565b61426b6080830184613df1565b95945050505050565b600060e082019050614289600083018961374b565b818103602083015261429a81613aa2565b90506142a96040830188613df1565b6142b66060830187613df1565b6142c36080830186613df1565b6142d060a083018561372d565b6142dd60c0830184613df1565b979650505050505050565b600060c0820190506142fd600083018861374b565b818103602083015261430e81613ae2565b905061431d6040830187613df1565b61432a6060830186613df1565b818103608083015261433c81856138a9565b905061434b60a0830184613df1565b9695505050505050565b600060c08201905061436a600083018861374b565b818103602083015261437b81613b22565b905061438a6040830187613df1565b818103606083015261439c81866137b8565b905081810360808301526143b081856138a9565b90506143bf60a0830184613df1565b9695505050505050565b6000610120820190506143df600083018b61374b565b81810360208301526143f081613b62565b90508181036040830152614404818a6137b8565b90508181036060830152614418818961375a565b9050818103608083015261442c81886138a9565b905061443b60a0830187613df1565b61444860c083018661374b565b61445560e0830185613df1565b614463610100830184613df1565b9998505050505050505050565b600060c082019050614485600083018861374b565b818103602083015261449681613ba2565b90506144a56040830187613df1565b6144b26060830186613df1565b6144bf6080830185613df1565b6144cc60a0830184613df1565b9695505050505050565b600060e0820190506144eb600083018961374b565b81810360208301526144fc81613be2565b905061450b6040830188613df1565b6145186060830187613df1565b6145256080830186613df1565b61453260a083018561372d565b61453f60c0830184613df1565b979650505050505050565b600060a08201905061455f600083018761374b565b818103602083015261457081613c22565b905061457f6040830186613df1565b61458c6060830185613df1565b6145996080830184613df1565b95945050505050565b600060e0820190506145b7600083018961374b565b81810360208301526145c881613c62565b90506145d76040830188613df1565b6145e46060830187613df1565b6145f16080830186613df1565b81810360a08301526146038185613816565b905061461260c0830184613df1565b979650505050505050565b600061014082019050614633600083018c61374b565b818103602083015261464481613ca2565b90508181036040830152614658818b6137b8565b9050818103606083015261466c818a61375a565b9050818103608083015261468081896138a9565b905061468f60a0830188613df1565b61469c60c083018761374b565b6146a960e0830186613df1565b6146b7610100830185613df1565b6146c5610120830184613df1565b9a9950505050505050505050565b6000610100820190506146e9600083018a61374b565b81810360208301526146fa81613ce2565b90506147096040830189613df1565b818103606083015261471b81886137b8565b9050818103608083015261472f81876138a9565b905061473e60a0830186613df1565b81810360c08301526147508185613816565b905061475f60e0830184613df1565b98975050505050505050565b600060e082019050614780600083018961374b565b818103602083015261479181613d22565b90506147a06040830188613df1565b6147ad6060830187613df1565b81810360808301526147bf81866137b8565b905081810360a08301526147d381856138a9565b90506147e260c0830184613df1565b979650505050505050565b600060a082019050614802600083018761374b565b818103602083015261481381613d62565b90506148226040830186613df1565b81810360608301526148348185613816565b90506148436080830184613df1565b95945050505050565b600060c082019050614861600083018861374b565b818103602083015261487281613da2565b90506148816040830187613df1565b61488e6060830186613df1565b81810360808301526148a081856137b8565b90506148af60a0830184613df1565b9695505050505050565b60006080820190506148ce600083018761374b565b6148db6020830186613df1565b81810360408301526148ed81856137b8565b9050818103606083015261490181846138a9565b905095945050505050565b600060c082019050614921600083018961374b565b61492e6020830188613df1565b818103604083015261494081876137b8565b9050818103606083015261495481866138a9565b90506149636080830185613df1565b81810360a08301526149758184613816565b9050979650505050505050565b6000606082019050614997600083018661374b565b6149a46020830185613df1565b81810360408301526149b68184613816565b9050949350505050565b60006060820190506149d5600083018661374b565b6149e26020830185613df1565b81810360408301526149f481846138a9565b9050949350505050565b6000606082019050614a13600083018661374b565b614a206020830185613df1565b614a2d6040830184613df1565b949350505050565b6000608082019050614a4a600083018761374b565b614a576020830186613df1565b614a646040830185613df1565b8181036060830152614a76818461375a565b905095945050505050565b6000608082019050614a96600083018761374b565b614aa36020830186613df1565b614ab06040830185613df1565b8181036060830152614ac281846137b8565b905095945050505050565b600060e082019050614ae2600083018a61374b565b614aef6020830189613df1565b614afc6040830188613df1565b8181036060830152614b0e81876137b8565b90508181036080830152614b2281866137b8565b905081810360a0830152614b3681856138a9565b9050614b4560c0830184613df1565b98975050505050505050565b600060a082019050614b66600083018861374b565b614b736020830187613df1565b614b806040830186613df1565b8181036060830152614b9281856137b8565b90508181036080830152614ba681846138a9565b90509695505050505050565b6000608082019050614bc7600083018761374b565b614bd46020830186613df1565b614be16040830185613df1565b8181036060830152614bf38184613816565b905095945050505050565b6000608082019050614c13600083018761374b565b614c206020830186613df1565b614c2d6040830185613df1565b8181036060830152614c3f81846138a9565b905095945050505050565b6000608082019050614c5f600083018761374b565b614c6c6020830186613df1565b614c796040830185613df1565b614c866060830184613df1565b95945050505050565b600060a082019050614ca4600083018861374b565b614cb16020830187613df1565b614cbe6040830186613df1565b614ccb6060830185613df1565b614cd8608083018461372d565b9695505050505050565b600060a082019050614cf7600083018861374b565b614d046020830187613df1565b614d116040830186613df1565b614d1e6060830185613df1565b8181036080830152614d308184613816565b90509695505050505050565b6000608082019050614d516000830187613874565b614d5e6020830186613e00565b614d6b6040830185613874565b614d786060830184613874565b95945050505050565b6000602082019050614d96600083018461389a565b92915050565b6000602082019050614db16000830184613df1565b92915050565b6000604051905081810181811067ffffffffffffffff82111715614dda57600080fd5b8060405250919050565b600067ffffffffffffffff821115614dfb57600080fd5b602082029050602081019050919050565b600067ffffffffffffffff821115614e2357600080fd5b602082029050602081019050919050565b600067ffffffffffffffff821115614e4b57600080fd5b602082029050602081019050919050565b600067ffffffffffffffff821115614e7357600080fd5b601f19601f8301169050602081019050919050565b600067ffffffffffffffff821115614e9f57600080fd5b601f19601f8301169050602081019050919050565b6000819050602082019050919050565b6000819050602082019050919050565b6000819050602082019050919050565b600081519050919050565b600081519050919050565b600081519050919050565b600081519050919050565b6000602082019050919050565b6000602082019050919050565b6000602082019050919050565b600082825260208201905092915050565b600082825260208201905092915050565b600082825260208201905092915050565b600082825260208201905092915050565b600081905092915050565b6000614f9182614fb4565b9050919050565b6000614fa382614fb4565b9050919050565b6000819050919050565b600073ffffffffffffffffffffffffffffffffffffffff82169050919050565b6000819050919050565b600060ff82169050919050565b6000614ff682614ffd565b9050919050565b600061500882614fb4565b9050919050565b82818337600083830152505050565b60005b8381101561503c578082015181840152602081019050615021565b8381111561504b576000848401525b50505050565b6000819050919050565b6000601f19601f8301169050919050565b61507581614f86565b811461508057600080fd5b50565b61508c81614f98565b811461509757600080fd5b50565b6150a381614fd4565b81146150ae57600080fd5b5056fea365627a7a723158203c6a3fe7790fc23ec225be73a16ca80b7961fe6fa5a04a030fe5173ae69dd76f6c6578706572696d656e74616cf564736f6c63430005100040",
  "source": "pragma solidity 0.5.16;\npragma experimental ABIEncoderV2;\n\nimport \"./StandardBounties.sol\";\n\n\n\ncontract BountiesMetaTxRelayer {\n\n  // This contract serves as a relayer for meta txns being sent to the Bounties contract\n\n  StandardBounties public bountiesContract;\n  mapping(address => uint) public replayNonce;\n\n\n  constructor(address _contract) public {\n    bountiesContract = StandardBounties(_contract);\n  }\n\n  function metaIssueBounty(\n    bytes memory signature,\n    address payable[] memory _issuers,\n    address[] memory _approvers,\n    string memory _data,\n    uint _deadline,\n    address _token,\n    uint _tokenVersion,\n    uint _nonce)\n    public\n    returns (uint)\n    {\n    bytes32 metaHash = keccak256(abi.encode(address(this),\n                                                  \"metaIssueBounty\",\n                                                  _issuers,\n                                                  _approvers,\n                                                  _data,\n                                                  _deadline,\n                                                  _token,\n                                                  _tokenVersion,\n                                                  _nonce));\n    address signer = getSigner(metaHash, signature);\n\n    //make sure signer doesn't come back as 0x0\n    require(signer != address(0));\n    require(_nonce == replayNonce[signer]);\n\n    //increase the nonce to prevent replay attacks\n    replayNonce[signer]++;\n    return bountiesContract.issueBounty(address(uint160(signer)),\n                                         _issuers,\n                                         _approvers,\n                                         _data,\n                                         _deadline,\n                                         _token,\n                                         _tokenVersion);\n  }\n\n  function metaIssueAndContribute(\n    bytes memory signature,\n    address payable[] memory _issuers,\n    address[] memory _approvers,\n    string memory _data,\n    uint _deadline,\n    address _token,\n    uint _tokenVersion,\n    uint _depositAmount,\n    uint _nonce)\n    public\n    payable\n    returns (uint)\n    {\n    bytes32 metaHash = keccak256(abi.encode(address(this),\n                                                  \"metaIssueAndContribute\",\n                                                  _issuers,\n                                                  _approvers,\n                                                  _data,\n                                                  _deadline,\n                                                  _token,\n                                                  _tokenVersion,\n                                                  _depositAmount,\n                                                  _nonce));\n    address signer = getSigner(metaHash, signature);\n\n    //make sure signer doesn't come back as 0x0\n    require(signer != address(0));\n    require(_nonce == replayNonce[signer]);\n\n    //increase the nonce to prevent replay attacks\n    replayNonce[signer]++;\n\n    if (msg.value > 0){\n      return bountiesContract.issueAndContribute.value(msg.value)(address(uint160(signer)),\n                                                 _issuers,\n                                                 _approvers,\n                                                 _data,\n                                                 _deadline,\n                                                 _token,\n                                                 _tokenVersion,\n                                                 _depositAmount);\n    } else {\n      return bountiesContract.issueAndContribute(address(uint160(signer)),\n                                                 _issuers,\n                                                 _approvers,\n                                                 _data,\n                                                 _deadline,\n                                                 _token,\n                                                 _tokenVersion,\n                                                 _depositAmount);\n    }\n\n  }\n\n  function metaContribute(\n    bytes memory _signature,\n    uint _bountyId,\n    uint _amount,\n    uint _nonce)\n    public\n    payable\n    {\n    bytes32 metaHash = keccak256(abi.encode(address(this),\n                                                  \"metaContribute\",\n                                                  _bountyId,\n                                                  _amount,\n                                                  _nonce));\n    address signer = getSigner(metaHash, _signature);\n\n    //make sure signer doesn't come back as 0x0\n    require(signer != address(0));\n    require(_nonce == replayNonce[signer]);\n\n    //increase the nonce to prevent replay attacks\n    replayNonce[signer]++;\n\n    if (msg.value > 0){\n      bountiesContract.contribute.value(msg.value)(address(uint160(signer)), _bountyId, _amount);\n    } else {\n      bountiesContract.contribute(address(uint160(signer)), _bountyId, _amount);\n    }\n  }\n\n\n  function metaRefundContribution(\n    bytes memory _signature,\n    uint _bountyId,\n    uint _contributionId,\n    uint _nonce)\n    public\n    {\n    bytes32 metaHash = keccak256(abi.encode(address(this),\n                                                  \"metaRefundContribution\",\n                                                  _bountyId,\n                                                  _contributionId,\n                                                  _nonce));\n    address signer = getSigner(metaHash, _signature);\n\n    //make sure signer doesn't come back as 0x0\n    require(signer != address(0));\n    require(_nonce == replayNonce[signer]);\n\n    //increase the nonce to prevent replay attacks\n    replayNonce[signer]++;\n\n    bountiesContract.refundContribution(signer, _bountyId, _contributionId);\n  }\n\n  function metaRefundMyContributions(\n    bytes memory _signature,\n    uint _bountyId,\n    uint[] memory _contributionIds,\n    uint _nonce)\n    public\n    {\n    bytes32 metaHash = keccak256(abi.encode(address(this),\n                                                  \"metaRefundMyContributions\",\n                                                  _bountyId,\n                                                  _contributionIds,\n                                                  _nonce));\n    address signer = getSigner(metaHash, _signature);\n\n    //make sure signer doesn't come back as 0x0\n    require(signer != address(0));\n    require(_nonce == replayNonce[signer]);\n\n    //increase the nonce to prevent replay attacks\n    replayNonce[signer]++;\n\n    bountiesContract.refundMyContributions(signer, _bountyId, _contributionIds);\n  }\n\n  function metaRefundContributions(\n    bytes memory _signature,\n    uint _bountyId,\n    uint _issuerId,\n    uint[] memory _contributionIds,\n    uint _nonce)\n    public\n    {\n    bytes32 metaHash = keccak256(abi.encode(address(this),\n                                                  \"metaRefundContributions\",\n                                                  _bountyId,\n                                                  _issuerId,\n                                                  _contributionIds,\n                                                  _nonce));\n    address signer = getSigner(metaHash, _signature);\n\n    //make sure signer doesn't come back as 0x0\n    require(signer != address(0));\n    require(_nonce == replayNonce[signer]);\n\n    //increase the nonce to prevent replay attacks\n    replayNonce[signer]++;\n\n    bountiesContract.refundContributions(signer, _bountyId, _issuerId, _contributionIds);\n  }\n\n  function metaDrainBounty(\n    bytes memory _signature,\n    uint _bountyId,\n    uint _issuerId,\n    uint[] memory _amounts,\n    uint _nonce)\n    public\n    {\n    bytes32 metaHash = keccak256(abi.encode(address(this),\n                                                  \"metaDrainBounty\",\n                                                  _bountyId,\n                                                  _issuerId,\n                                                  _amounts,\n                                                  _nonce));\n    address payable signer = address(uint160(getSigner(metaHash, _signature)));\n\n    //make sure signer doesn't come back as 0x0\n    require(signer != address(0));\n    require(_nonce == replayNonce[signer]);\n\n    //increase the nonce to prevent replay attacks\n    replayNonce[signer]++;\n\n    bountiesContract.drainBounty(signer, _bountyId, _issuerId, _amounts);\n  }\n\n  function metaPerformAction(\n    bytes memory _signature,\n    uint _bountyId,\n    string memory _data,\n    uint256 _nonce)\n    public\n    {\n    bytes32 metaHash = keccak256(abi.encode(address(this),\n                                                  \"metaPerformAction\",\n                                                  _bountyId,\n                                                  _data,\n                                                  _nonce));\n    address signer = getSigner(metaHash, _signature);\n    //make sure signer doesn't come back as 0x0\n    require(signer != address(0));\n    require(_nonce == replayNonce[signer]);\n\n    //increase the nonce to prevent replay attacks\n    replayNonce[signer]++;\n\n    bountiesContract.performAction(signer, _bountyId, _data);\n  }\n\n  function metaFulfillBounty(\n    bytes memory _signature,\n    uint _bountyId,\n    address payable[] memory  _fulfillers,\n    string memory _data,\n    uint256 _nonce)\n    public\n    {\n    bytes32 metaHash = keccak256(abi.encode(address(this),\n                                                  \"metaFulfillBounty\",\n                                                  _bountyId,\n                                                  _fulfillers,\n                                                  _data,\n                                                  _nonce));\n    address signer = getSigner(metaHash, _signature);\n    //make sure signer doesn't come back as 0x0\n    require(signer != address(0));\n    require(_nonce == replayNonce[signer]);\n\n    //increase the nonce to prevent replay attacks\n    replayNonce[signer]++;\n\n    bountiesContract.fulfillBounty(signer, _bountyId, _fulfillers, _data);\n  }\n\n  function metaUpdateFulfillment(\n    bytes memory _signature,\n    uint _bountyId,\n    uint _fulfillmentId,\n    address payable[] memory  _fulfillers,\n    string memory _data,\n    uint256 _nonce)\n    public\n    {\n    bytes32 metaHash = keccak256(abi.encode(address(this),\n                                                  \"metaUpdateFulfillment\",\n                                                  _bountyId,\n                                                  _fulfillmentId,\n                                                  _fulfillers,\n                                                  _data,\n                                                  _nonce));\n    address signer = getSigner(metaHash, _signature);\n    //make sure signer doesn't come back as 0x0\n    require(signer != address(0));\n    require(_nonce == replayNonce[signer]);\n\n    //increase the nonce to prevent replay attacks\n    replayNonce[signer]++;\n\n    bountiesContract.updateFulfillment(signer, _bountyId, _fulfillmentId, _fulfillers, _data);\n  }\n\n  function metaAcceptFulfillment(\n    bytes memory _signature,\n    uint _bountyId,\n    uint _fulfillmentId,\n    uint _approverId,\n    uint[] memory _tokenAmounts,\n    uint256 _nonce)\n    public\n    {\n    bytes32 metaHash = keccak256(abi.encode(address(this),\n                                                  \"metaAcceptFulfillment\",\n                                                  _bountyId,\n                                                  _fulfillmentId,\n                                                  _approverId,\n                                                  _tokenAmounts,\n                                                  _nonce));\n    address signer = getSigner(metaHash, _signature);\n    //make sure signer doesn't come back as 0x0\n    require(signer != address(0));\n    require(_nonce == replayNonce[signer]);\n\n    //increase the nonce to prevent replay attacks\n    replayNonce[signer]++;\n\n    bountiesContract.acceptFulfillment(signer,\n                       _bountyId,\n                       _fulfillmentId,\n                       _approverId,\n                       _tokenAmounts);\n  }\n\n  function metaFulfillAndAccept(\n    bytes memory _signature,\n    uint _bountyId,\n    address payable[] memory _fulfillers,\n    string memory _data,\n    uint _approverId,\n    uint[] memory _tokenAmounts,\n    uint256 _nonce)\n    public\n    {\n    bytes32 metaHash = keccak256(abi.encode(address(this),\n                                                  \"metaFulfillAndAccept\",\n                                                  _bountyId,\n                                                  _fulfillers,\n                                                  _data,\n                                                  _approverId,\n                                                  _tokenAmounts,\n                                                  _nonce));\n    address signer = getSigner(metaHash, _signature);\n    //make sure signer doesn't come back as 0x0\n    require(signer != address(0));\n    require(_nonce == replayNonce[signer]);\n\n    //increase the nonce to prevent replay attacks\n    replayNonce[signer]++;\n\n    bountiesContract.fulfillAndAccept(signer,\n                      _bountyId,\n                      _fulfillers,\n                      _data,\n                      _approverId,\n                      _tokenAmounts);\n  }\n\n  function metaChangeBounty(\n    bytes memory _signature,\n    uint _bountyId,\n    uint _issuerId,\n    address payable[] memory _issuers,\n    address payable[] memory _approvers,\n    string memory _data,\n    uint _deadline,\n    uint256 _nonce)\n    public\n    {\n    bytes32 metaHash = keccak256(abi.encode(address(this),\n                                                  \"metaChangeBounty\",\n                                                  _bountyId,\n                                                  _issuerId,\n                                                  _issuers,\n                                                  _approvers,\n                                                  _data,\n                                                  _deadline,\n                                                  _nonce));\n    address signer = getSigner(metaHash, _signature);\n    //make sure signer doesn't come back as 0x0\n    require(signer != address(0));\n    require(_nonce == replayNonce[signer]);\n\n    //increase the nonce to prevent replay attacks\n    replayNonce[signer]++;\n\n    bountiesContract.changeBounty(signer,\n                  _bountyId,\n                  _issuerId,\n                  _issuers,\n                  _approvers,\n                  _data,\n                  _deadline);\n  }\n\n  function metaChangeIssuer(\n    bytes memory _signature,\n    uint _bountyId,\n    uint _issuerId,\n    uint _issuerIdToChange,\n    address payable _newIssuer,\n    uint256 _nonce)\n    public\n    {\n    bytes32 metaHash = keccak256(abi.encode(address(this),\n                                                  \"metaChangeIssuer\",\n                                                  _bountyId,\n                                                  _issuerId,\n                                                  _issuerIdToChange,\n                                                  _newIssuer,\n                                                  _nonce));\n    address signer = getSigner(metaHash, _signature);\n    //make sure signer doesn't come back as 0x0\n    require(signer != address(0));\n    require(_nonce == replayNonce[signer]);\n\n    //increase the nonce to prevent replay attacks\n    replayNonce[signer]++;\n\n    bountiesContract.changeIssuer(signer,\n                  _bountyId,\n                  _issuerId,\n                  _issuerIdToChange,\n                  _newIssuer);\n  }\n\n  function metaChangeApprover(\n    bytes memory _signature,\n    uint _bountyId,\n    uint _issuerId,\n    uint _approverId,\n    address payable _approver,\n    uint256 _nonce)\n    public\n    {\n    bytes32 metaHash = keccak256(abi.encode(address(this),\n                                                  \"metaChangeApprover\",\n                                                  _bountyId,\n                                                  _issuerId,\n                                                  _approverId,\n                                                  _approver,\n                                                  _nonce));\n    address signer = getSigner(metaHash, _signature);\n    //make sure signer doesn't come back as 0x0\n    require(signer != address(0));\n    require(_nonce == replayNonce[signer]);\n\n    //increase the nonce to prevent replay attacks\n    replayNonce[signer]++;\n\n    bountiesContract.changeApprover(signer,\n                  _bountyId,\n                  _issuerId,\n                  _approverId,\n                  _approver);\n  }\n\n  function metaChangeData(\n    bytes memory _signature,\n    uint _bountyId,\n    uint _issuerId,\n    string memory _data,\n    uint256 _nonce)\n    public\n    {\n    bytes32 metaHash = keccak256(abi.encode(address(this),\n                                                  \"metaChangeData\",\n                                                  _bountyId,\n                                                  _issuerId,\n                                                  _data,\n                                                  _nonce));\n    address signer = getSigner(metaHash, _signature);\n    //make sure signer doesn't come back as 0x0\n    require(signer != address(0));\n    require(_nonce == replayNonce[signer]);\n\n    //increase the nonce to prevent replay attacks\n    replayNonce[signer]++;\n\n    bountiesContract.changeData(signer,\n                _bountyId,\n                _issuerId,\n                _data);\n  }\n\n  function metaChangeDeadline(\n    bytes memory _signature,\n    uint _bountyId,\n    uint _issuerId,\n    uint  _deadline,\n    uint256 _nonce)\n    public\n    {\n    bytes32 metaHash = keccak256(abi.encode(address(this),\n                                                  \"metaChangeDeadline\",\n                                                  _bountyId,\n                                                  _issuerId,\n                                                  _deadline,\n                                                  _nonce));\n    address signer = getSigner(metaHash, _signature);\n    //make sure signer doesn't come back as 0x0\n    require(signer != address(0));\n    require(_nonce == replayNonce[signer]);\n\n    //increase the nonce to prevent replay attacks\n    replayNonce[signer]++;\n\n    bountiesContract.changeDeadline(signer,\n                    _bountyId,\n                    _issuerId,\n                    _deadline);\n  }\n\n  function metaAddIssuers(\n    bytes memory _signature,\n    uint _bountyId,\n    uint _issuerId,\n    address payable[] memory _issuers,\n    uint256 _nonce)\n    public\n    {\n    bytes32 metaHash = keccak256(abi.encode(address(this),\n                                                  \"metaAddIssuers\",\n                                                  _bountyId,\n                                                  _issuerId,\n                                                  _issuers,\n                                                  _nonce));\n    address signer = getSigner(metaHash, _signature);\n    //make sure signer doesn't come back as 0x0\n    require(signer != address(0));\n    require(_nonce == replayNonce[signer]);\n\n    //increase the nonce to prevent replay attacks\n    replayNonce[signer]++;\n\n    bountiesContract.addIssuers(signer,\n                _bountyId,\n                _issuerId,\n                _issuers);\n  }\n\n  function metaAddApprovers(\n    bytes memory _signature,\n    uint _bountyId,\n    uint _issuerId,\n    address[] memory _approvers,\n    uint256 _nonce)\n    public\n    {\n    bytes32 metaHash = keccak256(abi.encode(address(this),\n                                                  \"metaAddApprovers\",\n                                                  _bountyId,\n                                                  _issuerId,\n                                                  _approvers,\n                                                  _nonce));\n    address signer = getSigner(metaHash, _signature);\n    //make sure signer doesn't come back as 0x0\n    require(signer != address(0));\n    require(_nonce == replayNonce[signer]);\n\n    //increase the nonce to prevent replay attacks\n    replayNonce[signer]++;\n\n    bountiesContract.addApprovers(signer,\n                _bountyId,\n                _issuerId,\n                _approvers);\n  }\n\n  function getSigner(\n    bytes32 _hash,\n    bytes memory _signature)\n    internal\n    pure\n    returns (address)\n  {\n    bytes32 r;\n    bytes32 s;\n    uint8 v;\n    if (_signature.length != 65){\n      return address(0);\n    }\n    assembly {\n      r := mload(add(_signature, 32))\n      s := mload(add(_signature, 64))\n      v := byte(0, mload(add(_signature, 96)))\n    }\n    if (v < 27){\n      v += 27;\n    }\n    if (v != 27 && v != 28){\n      return address(0);\n    } else {\n        return ecrecover(keccak256(abi.encodePacked(\"\\x19Ethereum Signed Message:\\n32\", _hash)), v, r, s );\n    }\n  }\n}\n",
  "sourcePath": "/home/hayek/proj/bounties/contracts/BountiesMetaTxRelayer.sol",
  "compiler": {
    "name": "solc",
    "version": "0.5.16+commit.9c3226ce.Emscripten.clang"
  },
  "schemaVersion": "3.3.4",
  "updatedAt": "2021-03-30T21:30:09.381Z",
  "devdoc": {
    "methods": {}
  },
  "userdoc": {
    "methods": {}
  }
}