{
  "contractName": "HumanStandardToken",
  "abi": [
    {
      "inputs": [
        {
          "internalType": "uint256",
          "name": "_initialAmount",
          "type": "uint256"
        },
        {
          "internalType": "string",
          "name": "_tokenName",
          "type": "string"
        },
        {
          "internalType": "uint8",
          "name": "_decimalUnits",
          "type": "uint8"
        },
        {
          "internalType": "string",
          "name": "_tokenSymbol",
          "type": "string"
        }
      ],
      "payable": false,
      "stateMutability": "nonpayable",
      "type": "constructor"
    },
    {
      "anonymous": false,
      "inputs": [
        {
          "indexed": false,
          "internalType": "address",
          "name": "_owner",
          "type": "address"
        },
        {
          "indexed": false,
          "internalType": "address",
          "name": "_spender",
          "type": "address"
        },
        {
          "indexed": false,
          "internalType": "uint256",
          "name": "_value",
          "type": "uint256"
        }
      ],
      "name": "Approval",
      "type": "event"
    },
    {
      "anonymous": false,
      "inputs": [
        {
          "indexed": false,
          "internalType": "address",
          "name": "_from",
          "type": "address"
        },
        {
          "indexed": false,
          "internalType": "address",
          "name": "_to",
          "type": "address"
        },
        {
          "indexed": false,
          "internalType": "uint256",
          "name": "_value",
          "type": "uint256"
        }
      ],
      "name": "Transfer",
      "type": "event"
    },
    {
      "constant": true,
      "inputs": [],
      "name": "decimals",
      "outputs": [
        {
          "internalType": "uint8",
          "name": "",
          "type": "uint8"
        }
      ],
      "payable": false,
      "stateMutability": "view",
      "type": "function"
    },
    {
      "constant": true,
      "inputs": [],
      "name": "name",
      "outputs": [
        {
          "internalType": "string",
          "name": "",
          "type": "string"
        }
      ],
      "payable": false,
      "stateMutability": "view",
      "type": "function"
    },
    {
      "constant": true,
      "inputs": [],
      "name": "symbol",
      "outputs": [
        {
          "internalType": "string",
          "name": "",
          "type": "string"
        }
      ],
      "payable": false,
      "stateMutability": "view",
      "type": "function"
    },
    {
      "constant": true,
      "inputs": [],
      "name": "totalSupply",
      "outputs": [
        {
          "internalType": "uint256",
          "name": "",
          "type": "uint256"
        }
      ],
      "payable": false,
      "stateMutability": "view",
      "type": "function"
    },
    {
      "constant": true,
      "inputs": [],
      "name": "version",
      "outputs": [
        {
          "internalType": "string",
          "name": "",
          "type": "string"
        }
      ],
      "payable": false,
      "stateMutability": "view",
      "type": "function"
    },
    {
      "constant": false,
      "inputs": [
        {
          "internalType": "address",
          "name": "_to",
          "type": "address"
        },
        {
          "internalType": "uint256",
          "name": "_value",
          "type": "uint256"
        }
      ],
      "name": "transfer",
      "outputs": [
        {
          "internalType": "bool",
          "name": "success",
          "type": "bool"
        }
      ],
      "payable": false,
      "stateMutability": "nonpayable",
      "type": "function"
    },
    {
      "constant": false,
      "inputs": [
        {
          "internalType": "address",
          "name": "_from",
          "type": "address"
        },
        {
          "internalType": "address",
          "name": "_to",
          "type": "address"
        },
        {
          "internalType": "uint256",
          "name": "_value",
          "type": "uint256"
        }
      ],
      "name": "transferFrom",
      "outputs": [
        {
          "internalType": "bool",
          "name": "success",
          "type": "bool"
        }
      ],
      "payable": false,
      "stateMutability": "nonpayable",
      "type": "function"
    },
    {
      "constant": true,
      "inputs": [
        {
          "internalType": "address",
          "name": "_owner",
          "type": "address"
        }
      ],
      "name": "balanceOf",
      "outputs": [
        {
          "internalType": "uint256",
          "name": "balance",
          "type": "uint256"
        }
      ],
      "payable": false,
      "stateMutability": "view",
      "type": "function"
    },
    {
      "constant": false,
      "inputs": [
        {
          "internalType": "address",
          "name": "_spender",
          "type": "address"
        },
        {
          "internalType": "uint256",
          "name": "_value",
          "type": "uint256"
        }
      ],
      "name": "approve",
      "outputs": [
        {
          "internalType": "bool",
          "name": "success",
          "type": "bool"
        }
      ],
      "payable": false,
      "stateMutability": "nonpayable",
      "type": "function"
    },
    {
      "constant": true,
      "inputs": [
        {
          "internalType": "address",
          "name": "_owner",
          "type": "address"
        },
        {
          "internalType": "address",
          "name": "_spender",
          "type": "address"
        }
      ],
      "name": "allowance",
      "outputs": [
        {
          "internalType": "uint256",
          "name": "remaining",
          "type": "uint256"
        }
      ],
      "payable": false,
      "stateMutability": "view",
      "type": "function"
    }
  ],
  "bytecode": "0x60806040526040518060400160405280600481526020017f48302e31000000000000000000000000000000000000000000000000000000008152506006908051906020019062000051929190620002b9565b503480156200005f57600080fd5b506040516200108538038062001085833981810160405260808110156200008557600080fd5b810190808051906020019092919080516040519392919084640100000000821115620000b057600080fd5b83820191506020820185811115620000c757600080fd5b8251866001820283011164010000000082111715620000e557600080fd5b8083526020830192505050908051906020019080838360005b838110156200011b578082015181840152602081019050620000fe565b50505050905090810190601f168015620001495780820380516001836020036101000a031916815260200191505b5060405260200180519060200190929190805160405193929190846401000000008211156200017757600080fd5b838201915060208201858111156200018e57600080fd5b8251866001820283011164010000000082111715620001ac57600080fd5b8083526020830192505050908051906020019080838360005b83811015620001e2578082015181840152602081019050620001c5565b50505050905090810190601f168015620002105780820380516001836020036101000a031916815260200191505b5060405250505083600160003373ffffffffffffffffffffffffffffffffffffffff1673ffffffffffffffffffffffffffffffffffffffff168152602001908152602001600020819055508360008190555082600390805190602001906200027a929190620002b9565b5081600460006101000a81548160ff021916908360ff1602179055508060059080519060200190620002ae929190620002b9565b505050505062000368565b828054600181600116156101000203166002900490600052602060002090601f016020900481019282601f10620002fc57805160ff19168380011785556200032d565b828001600101855582156200032d579182015b828111156200032c5782518255916020019190600101906200030f565b5b5090506200033c919062000340565b5090565b6200036591905b808211156200036157600081600090555060010162000347565b5090565b90565b610d0d80620003786000396000f3fe608060405234801561001057600080fd5b506004361061009e5760003560e01c806354fd4d501161006657806354fd4d501461025457806370a08231146102d757806395d89b411461032f578063a9059cbb146103b2578063dd62ed3e146104185761009e565b806306fdde03146100a3578063095ea7b31461012657806318160ddd1461018c57806323b872dd146101aa578063313ce56714610230575b600080fd5b6100ab610490565b6040518080602001828103825283818151815260200191508051906020019080838360005b838110156100eb5780820151818401526020810190506100d0565b50505050905090810190601f1680156101185780820380516001836020036101000a031916815260200191505b509250505060405180910390f35b6101726004803603604081101561013c57600080fd5b81019080803573ffffffffffffffffffffffffffffffffffffffff1690602001909291908035906020019092919050505061052e565b604051808215151515815260200191505060405180910390f35b61019461065a565b6040518082815260200191505060405180910390f35b610216600480360360608110156101c057600080fd5b81019080803573ffffffffffffffffffffffffffffffffffffffff169060200190929190803573ffffffffffffffffffffffffffffffffffffffff16906020019092919080359060200190929190505050610660565b604051808215151515815260200191505060405180910390f35b610238610916565b604051808260ff1660ff16815260200191505060405180910390f35b61025c610929565b6040518080602001828103825283818151815260200191508051906020019080838360005b8381101561029c578082015181840152602081019050610281565b50505050905090810190601f1680156102c95780820380516001836020036101000a031916815260200191505b509250505060405180910390f35b610319600480360360208110156102ed57600080fd5b81019080803573ffffffffffffffffffffffffffffffffffffffff1690602001909291905050506109c7565b6040518082815260200191505060405180910390f35b610337610a10565b6040518080602001828103825283818151815260200191508051906020019080838360005b8381101561037757808201518184015260208101905061035c565b50505050905090810190601f1680156103a45780820380516001836020036101000a031916815260200191505b509250505060405180910390f35b6103fe600480360360408110156103c857600080fd5b81019080803573ffffffffffffffffffffffffffffffffffffffff16906020019092919080359060200190929190505050610aae565b604051808215151515815260200191505060405180910390f35b61047a6004803603604081101561042e57600080fd5b81019080803573ffffffffffffffffffffffffffffffffffffffff169060200190929190803573ffffffffffffffffffffffffffffffffffffffff169060200190929190505050610c51565b6040518082815260200191505060405180910390f35b60038054600181600116156101000203166002900480601f0160208091040260200160405190810160405280929190818152602001828054600181600116156101000203166002900480156105265780601f106104fb57610100808354040283529160200191610526565b820191906000526020600020905b81548152906001019060200180831161050957829003601f168201915b505050505081565b600081600260003373ffffffffffffffffffffffffffffffffffffffff1673ffffffffffffffffffffffffffffffffffffffff16815260200190815260200160002060008573ffffffffffffffffffffffffffffffffffffffff1673ffffffffffffffffffffffffffffffffffffffff168152602001908152602001600020819055507f8c5be1e5ebec7d5bd14f71427d1e84f3dd0314c0f7b2291e5b200ac8c7c3b925338484604051808473ffffffffffffffffffffffffffffffffffffffff1673ffffffffffffffffffffffffffffffffffffffff1681526020018373ffffffffffffffffffffffffffffffffffffffff1673ffffffffffffffffffffffffffffffffffffffff168152602001828152602001935050505060405180910390a16001905092915050565b60005481565b600081600160008673ffffffffffffffffffffffffffffffffffffffff1673ffffffffffffffffffffffffffffffffffffffff168152602001908152602001600020541015801561072d575081600260008673ffffffffffffffffffffffffffffffffffffffff1673ffffffffffffffffffffffffffffffffffffffff16815260200190815260200160002060003373ffffffffffffffffffffffffffffffffffffffff1673ffffffffffffffffffffffffffffffffffffffff1681526020019081526020016000205410155b80156107395750600082115b1561090a5781600160008573ffffffffffffffffffffffffffffffffffffffff1673ffffffffffffffffffffffffffffffffffffffff1681526020019081526020016000206000828254019250508190555081600160008673ffffffffffffffffffffffffffffffffffffffff1673ffffffffffffffffffffffffffffffffffffffff1681526020019081526020016000206000828254039250508190555081600260008673ffffffffffffffffffffffffffffffffffffffff1673ffffffffffffffffffffffffffffffffffffffff16815260200190815260200160002060003373ffffffffffffffffffffffffffffffffffffffff1673ffffffffffffffffffffffffffffffffffffffff168152602001908152602001600020600082825403925050819055507fddf252ad1be2c89b69c2b068fc378daa952ba7f163c4a11628f55a4df523b3ef848484604051808473ffffffffffffffffffffffffffffffffffffffff1673ffffffffffffffffffffffffffffffffffffffff1681526020018373ffffffffffffffffffffffffffffffffffffffff1673ffffffffffffffffffffffffffffffffffffffff168152602001828152602001935050505060405180910390a16001905061090f565b600090505b9392505050565b600460009054906101000a900460ff1681565b60068054600181600116156101000203166002900480601f0160208091040260200160405190810160405280929190818152602001828054600181600116156101000203166002900480156109bf5780601f10610994576101008083540402835291602001916109bf565b820191906000526020600020905b8154815290600101906020018083116109a257829003601f168201915b505050505081565b6000600160008373ffffffffffffffffffffffffffffffffffffffff1673ffffffffffffffffffffffffffffffffffffffff168152602001908152602001600020549050919050565b60058054600181600116156101000203166002900480601f016020809104026020016040519081016040528092919081815260200182805460018160011615610100020316600290048015610aa65780601f10610a7b57610100808354040283529160200191610aa6565b820191906000526020600020905b815481529060010190602001808311610a8957829003601f168201915b505050505081565b600081600160003373ffffffffffffffffffffffffffffffffffffffff1673ffffffffffffffffffffffffffffffffffffffff1681526020019081526020016000205410158015610aff5750600082115b15610c465781600160003373ffffffffffffffffffffffffffffffffffffffff1673ffffffffffffffffffffffffffffffffffffffff1681526020019081526020016000206000828254039250508190555081600160008573ffffffffffffffffffffffffffffffffffffffff1673ffffffffffffffffffffffffffffffffffffffff168152602001908152602001600020600082825401925050819055507fddf252ad1be2c89b69c2b068fc378daa952ba7f163c4a11628f55a4df523b3ef338484604051808473ffffffffffffffffffffffffffffffffffffffff1673ffffffffffffffffffffffffffffffffffffffff1681526020018373ffffffffffffffffffffffffffffffffffffffff1673ffffffffffffffffffffffffffffffffffffffff168152602001828152602001935050505060405180910390a160019050610c4b565b600090505b92915050565b6000600260008473ffffffffffffffffffffffffffffffffffffffff1673ffffffffffffffffffffffffffffffffffffffff16815260200190815260200160002060008373ffffffffffffffffffffffffffffffffffffffff1673ffffffffffffffffffffffffffffffffffffffff1681526020019081526020016000205490509291505056fea265627a7a72315820fe88ea539cffa6715ff6c1b8532a5391c2f91bf7fffba0c593c5d214a2d4dfab64736f6c63430005100032",
  "source": "/*\nThis Token Contract implements the standard token functionality (https://github.com/ethereum/EIPs/issues/20) as well as the following OPTIONAL extras intended for use by humans.\n\nIn other words. This is intended for deployment in something like a Token Factory or Mist wallet, and then used by humans.\nImagine coins, currencies, shares, voting weight, etc.\nMachine-based, rapid creation of many tokens would not necessarily need these extra features or will be minted in other manners.\n\n1) Initial Finite Supply (upon creation one specifies how much is minted).\n2) In the absence of a token registry: Optional Decimal, Symbol & Name.\n3) Optional approveAndCall() functionality to notify a contract if an approval() has occurred.\n\n.*/\n\nimport \"../inherited/ERC20Token.sol\";\n\npragma solidity 0.5.16;\n\ncontract HumanStandardToken is ERC20Token {\n\n    /* Public variables of the token */\n\n    /*\n    NOTE:\n    The following variables are OPTIONAL vanities. One does not have to include them.\n    They allow one to customise the token contract & in no way influences the core functionality.\n    Some wallets/interfaces might not even bother to look at this information.\n    */\n    string public name;                   //fancy name: eg Simon Bucks\n    uint8 public decimals;                //How many decimals to show. ie. There could 1000 base units with 3 decimals. Meaning 0.980 SBX = 980 base units. It's like comparing 1 wei to 1 ether.\n    string public symbol;                 //An identifier: eg SBX\n    string public version = 'H0.1';       //human 0.1 standard. Just an arbitrary versioning scheme.\n\n    constructor(\n        uint256 _initialAmount,\n        string memory _tokenName,\n        uint8 _decimalUnits,\n        string memory _tokenSymbol\n        ) public {\n        balances[msg.sender] = _initialAmount;               // Give the creator all initial tokens\n        totalSupply = _initialAmount;                        // Update total supply\n        name = _tokenName;                                   // Set the name for display purposes\n        decimals = _decimalUnits;                            // Amount of decimals for display purposes\n        symbol = _tokenSymbol;                               // Set the symbol for display purposes\n    }\n    function transfer(address _to, uint256 _value) public returns (bool success) {\n        //Default assumes totalSupply can't be over max (2^256 - 1).\n        //If your token leaves out totalSupply and can issue more tokens as time goes on, you need to check if it doesn't wrap.\n        //Replace the if with this one instead.\n        //if (balances[msg.sender] >= _value && balances[_to] + _value > balances[_to]) {\n        if (balances[msg.sender] >= _value && _value > 0) {\n            balances[msg.sender] -= _value;\n            balances[_to] += _value;\n            emit Transfer(msg.sender, _to, _value);\n            return true;\n        } else { return false; }\n    }\n\n    function transferFrom(address _from, address _to, uint256 _value) public returns (bool success) {\n        //same as above. Replace this line with the following if you want to protect against wrapping uints.\n        //if (balances[_from] >= _value && allowed[_from][msg.sender] >= _value && balances[_to] + _value > balances[_to]) {\n        if (balances[_from] >= _value && allowed[_from][msg.sender] >= _value && _value > 0) {\n            balances[_to] += _value;\n            balances[_from] -= _value;\n            allowed[_from][msg.sender] -= _value;\n            emit Transfer(_from, _to, _value);\n            return true;\n        } else { return false; }\n    }\n\n    function balanceOf(address _owner) view public returns (uint256 balance) {\n        return balances[_owner];\n    }\n\n    function approve(address _spender, uint256 _value) public returns (bool success) {\n        allowed[msg.sender][_spender] = _value;\n        emit Approval(msg.sender, _spender, _value);\n        return true;\n    }\n\n    function allowance(address _owner, address _spender) view public returns (uint256 remaining) {\n      return allowed[_owner][_spender];\n    }\n}\n",
  "sourcePath": "/home/hayek/proj/bounties/contracts/inherited/HumanStandardToken.sol",
  "compiler": {
    "name": "solc",
    "version": "0.5.16+commit.9c3226ce.Emscripten.clang"
  },
  "schemaVersion": "3.3.2",
  "updatedAt": "2021-03-22T17:52:51.558Z",
  "devdoc": {
    "methods": {}
  },
  "userdoc": {
    "methods": {}
  }
}