{
  "contractName": "SupportsInterfaceWithLookup",
  "abi": [
    {
      "inputs": [],
      "payable": false,
      "stateMutability": "nonpayable",
      "type": "constructor"
    },
    {
      "constant": true,
      "inputs": [],
      "name": "InterfaceId_ERC165",
      "outputs": [
        {
          "internalType": "bytes4",
          "name": "",
          "type": "bytes4"
        }
      ],
      "payable": false,
      "stateMutability": "view",
      "type": "function"
    },
    {
      "constant": true,
      "inputs": [
        {
          "internalType": "bytes4",
          "name": "_interfaceId",
          "type": "bytes4"
        }
      ],
      "name": "supportsInterface",
      "outputs": [
        {
          "internalType": "bool",
          "name": "",
          "type": "bool"
        }
      ],
      "payable": false,
      "stateMutability": "view",
      "type": "function"
    }
  ],
  "bytecode": "0x608060405234801561001057600080fd5b506100276301ffc9a760e01b61002c60201b60201c565b6100cb565b63ffffffff60e01b817bffffffffffffffffffffffffffffffffffffffffffffffffffffffff1916141561005f57600080fd5b6001600080837bffffffffffffffffffffffffffffffffffffffffffffffffffffffff19167bffffffffffffffffffffffffffffffffffffffffffffffffffffffff1916815260200190815260200160002060006101000a81548160ff02191690831515021790555050565b6101a3806100da6000396000f3fe608060405234801561001057600080fd5b50600436106100365760003560e01c806301ffc9a71461003b57806319fa8f50146100a0575b600080fd5b6100866004803603602081101561005157600080fd5b8101908080357bffffffffffffffffffffffffffffffffffffffffffffffffffffffff191690602001909291905050506100fc565b604051808215151515815260200191505060405180910390f35b6100a8610163565b60405180827bffffffffffffffffffffffffffffffffffffffffffffffffffffffff19167bffffffffffffffffffffffffffffffffffffffffffffffffffffffff1916815260200191505060405180910390f35b6000806000837bffffffffffffffffffffffffffffffffffffffffffffffffffffffff19167bffffffffffffffffffffffffffffffffffffffffffffffffffffffff1916815260200190815260200160002060009054906101000a900460ff169050919050565b6301ffc9a760e01b8156fea265627a7a7231582074abe908ade5d88da752600a1f172eb88e3c42b67d04c3a1edbcf7ec6d9116e264736f6c63430005100032",
  "source": " pragma solidity 0.5.16;\n\n/**\n * @title SafeMath\n * @dev Math operations with safety checks that throw on error\n */\nlibrary SafeMath {\n\n  /**\n  * @dev Multiplies two numbers, throws on overflow.\n  */\n  function mul(uint256 a, uint256 b) internal pure returns (uint256 c) {\n    // Gas optimization: this is cheaper than asserting 'a' not being zero, but the\n    // benefit is lost if 'b' is also tested.\n    // See: https://github.com/OpenZeppelin/openzeppelin-solidity/pull/522\n    if (a == 0) {\n      return 0;\n    }\n\n    c = a * b;\n    assert(c / a == b);\n    return c;\n  }\n\n  /**\n  * @dev Integer division of two numbers, truncating the quotient.\n  */\n  function div(uint256 a, uint256 b) internal pure returns (uint256) {\n    // assert(b > 0); // Solidity automatically throws when dividing by 0\n    // uint256 c = a / b;\n    // assert(a == b * c + a % b); // There is no case in which this doesn't hold\n    return a / b;\n  }\n\n  /**\n  * @dev Subtracts two numbers, throws on overflow (i.e. if subtrahend is greater than minuend).\n  */\n  function sub(uint256 a, uint256 b) internal pure returns (uint256) {\n    assert(b <= a);\n    return a - b;\n  }\n\n  /**\n  * @dev Adds two numbers, throws on overflow.\n  */\n  function add(uint256 a, uint256 b) internal pure returns (uint256 c) {\n    c = a + b;\n    assert(c >= a);\n    return c;\n  }\n}\n\n/**\n * Utility library of inline functions on addresses\n */\nlibrary AddressUtils {\n\n  /**\n   * Returns whether the target address is a contract\n   * @dev This function will return false if invoked during the constructor of a contract,\n   * as the code is not actually created until after the constructor finishes.\n   * @param addr address to check\n   * @return whether the target address is a contract\n   */\n  function isContract(address addr) internal view returns (bool) {\n    uint256 size;\n    // XXX Currently there is no better way to check if there is a contract in an address\n    // than to check the size of the code at that address.\n    // See https://ethereum.stackexchange.com/a/14016/36603\n    // for more details about how this works.\n    // TODO Check this again before the Serenity release, because all addresses will be\n    // contracts then.\n    // solium-disable-next-line security/no-inline-assembly\n    assembly { size := extcodesize(addr) }\n    return size > 0;\n  }\n\n}\n\n/**\n * @title ERC165\n * @dev https://github.com/ethereum/EIPs/blob/master/EIPS/eip-165.md\n */\ninterface ERC165 {\n\n  /**\n   * @notice Query if a contract implements an interface\n   * @param _interfaceId The interface identifier, as specified in ERC-165\n   * @dev Interface identification is specified in ERC-165. This function\n   * uses less than 30,000 gas.\n   */\n  function supportsInterface(bytes4 _interfaceId)\n    external\n    view\n    returns (bool);\n}\n\n\n/**\n * @title SupportsInterfaceWithLookup\n * @author Matt Condon (@shrugs)\n * @dev Implements ERC165 using a lookup table.\n */\ncontract SupportsInterfaceWithLookup is ERC165 {\n  bytes4 public constant InterfaceId_ERC165 = 0x01ffc9a7;\n  /**\n   * 0x01ffc9a7 ===\n   *   bytes4(keccak256('supportsInterface(bytes4)'))\n   */\n\n  /**\n   * @dev a mapping of interface id to whether or not it's supported\n   */\n  mapping(bytes4 => bool) internal supportedInterfaces;\n\n  /**\n   * @dev A contract implementing SupportsInterfaceWithLookup\n   * implement ERC165 itself\n   */\n  constructor()\n    public\n  {\n    _registerInterface(InterfaceId_ERC165);\n  }\n\n  /**\n   * @dev implement supportsInterface(bytes4) using a lookup table\n   */\n  function supportsInterface(bytes4 _interfaceId)\n    external\n    view\n    returns (bool)\n  {\n    return supportedInterfaces[_interfaceId];\n  }\n\n  /**\n   * @dev private method for registering an interface\n   */\n  function _registerInterface(bytes4 _interfaceId)\n    internal\n  {\n    require(_interfaceId != 0xffffffff);\n    supportedInterfaces[_interfaceId] = true;\n  }\n}\n\n/**\n * @title ERC721 token receiver interface\n * @dev Interface for any contract that wants to support safeTransfers\n * from ERC721 asset contracts.\n */\ncontract ERC721Receiver {\n  /**\n   * @dev Magic value to be returned upon successful reception of an NFT\n   *  Equals to `bytes4(keccak256(\"onERC721Received(address,uint256,bytes)\"))`,\n   *  which can be also obtained as `ERC721Receiver(0).onERC721Received.selector`\n   */\n  bytes4 internal constant ERC721_RECEIVED = 0xf0b9e5ba;\n\n  /**\n   * @notice Handle the receipt of an NFT\n   * @dev The ERC721 smart contract calls this function on the recipient\n   * after a `safetransfer`. This function MAY throw to revert and reject the\n   * transfer. This function MUST use 50,000 gas or less. Return of other\n   * than the magic value MUST result in the transaction being reverted.\n   * Note: the contract address is always the message sender.\n   * @param _from The sending address\n   * @param _tokenId The NFT identifier which is being transfered\n   * @param _data Additional data with no specified format\n   * @return `bytes4(keccak256(\"onERC721Received(address,uint256,bytes)\"))`\n   */\n  function onERC721Received(\n    address _from,\n    uint256 _tokenId,\n    bytes memory _data\n  )\n    public\n    returns(bytes4);\n}\n\n/**\n * @title ERC721 Non-Fungible Token Standard basic interface\n * @dev see https://github.com/ethereum/EIPs/blob/master/EIPS/eip-721.md\n */\ncontract ERC721Basic is ERC165 {\n  event Transfer(\n    address  _from,\n    address  _to,\n    uint256  _tokenId\n  );\n  event Approval(\n    address  _owner,\n    address  _approved,\n    uint256  _tokenId\n  );\n  event ApprovalForAll(\n    address  _owner,\n    address  _operator,\n    bool _approved\n  );\n\n  function balanceOf(address _owner) public view returns (uint256 _balance);\n  function ownerOf(uint256 _tokenId) public view returns (address _owner);\n  function exists(uint256 _tokenId) public view returns (bool _exists);\n\n  function approve(address _to, uint256 _tokenId) public;\n  function getApproved(uint256 _tokenId)\n    public view returns (address _operator);\n\n  function setApprovalForAll(address _operator, bool _approved) public;\n  function isApprovedForAll(address _owner, address _operator)\n    public view returns (bool);\n\n  function transferFrom(address _from, address _to, uint256 _tokenId) public;\n  function safeTransferFrom(address _from, address _to, uint256 _tokenId)\n    public;\n\n  function safeTransferFrom(\n    address _from,\n    address _to,\n    uint256 _tokenId,\n    bytes memory _data\n  )\n    public;\n}\n\n/**\n * @title ERC721 Non-Fungible Token Standard basic implementation\n * @dev see https://github.com/ethereum/EIPs/blob/master/EIPS/eip-721.md\n */\ncontract ERC721BasicToken is SupportsInterfaceWithLookup, ERC721Basic {\n\n  bytes4 private constant InterfaceId_ERC721 = 0x80ac58cd;\n  /*\n   * 0x80ac58cd ===\n   *   bytes4(keccak256('balanceOf(address)')) ^\n   *   bytes4(keccak256('ownerOf(uint256)')) ^\n   *   bytes4(keccak256('approve(address,uint256)')) ^\n   *   bytes4(keccak256('getApproved(uint256)')) ^\n   *   bytes4(keccak256('setApprovalForAll(address,bool)')) ^\n   *   bytes4(keccak256('isApprovedForAll(address,address)')) ^\n   *   bytes4(keccak256('transferFrom(address,address,uint256)')) ^\n   *   bytes4(keccak256('safeTransferFrom(address,address,uint256)')) ^\n   *   bytes4(keccak256('safeTransferFrom(address,address,uint256,bytes)'))\n   */\n\n  bytes4 private constant InterfaceId_ERC721Exists = 0x4f558e79;\n  /*\n   * 0x4f558e79 ===\n   *   bytes4(keccak256('exists(uint256)'))\n   */\n\n  using SafeMath for uint256;\n  using AddressUtils for address;\n\n  // Equals to `bytes4(keccak256(\"onERC721Received(address,uint256,bytes)\"))`\n  // which can be also obtained as `ERC721Receiver(0).onERC721Received.selector`\n  bytes4 private constant ERC721_RECEIVED = 0xf0b9e5ba;\n\n  // Mapping from token ID to owner\n  mapping (uint256 => address) internal tokenOwner;\n\n  // Mapping from token ID to approved address\n  mapping (uint256 => address) internal tokenApprovals;\n\n  // Mapping from owner to number of owned token\n  mapping (address => uint256) internal ownedTokensCount;\n\n  // Mapping from owner to operator approvals\n  mapping (address => mapping (address => bool)) internal operatorApprovals;\n\n\n  uint public testint;\n  /**\n   * @dev Guarantees msg.sender is owner of the given token\n   * @param _tokenId uint256 ID of the token to validate its ownership belongs to msg.sender\n   */\n  modifier onlyOwnerOf(uint256 _tokenId) {\n    require(ownerOf(_tokenId) == msg.sender);\n    _;\n  }\n\n  /**\n   * @dev Checks msg.sender can transfer a token, by being owner, approved, or operator\n   * @param _tokenId uint256 ID of the token to validate\n   */\n  modifier canTransfer(uint256 _tokenId) {\n    require(isApprovedOrOwner(msg.sender, _tokenId));\n    _;\n  }\n\n  constructor()\n    public\n  {\n    // register the supported interfaces to conform to ERC721 via ERC165\n    _registerInterface(InterfaceId_ERC721);\n    _registerInterface(InterfaceId_ERC721Exists);\n  }\n\n  /**\n   * @dev Gets the balance of the specified address\n   * @param _owner address to query the balance of\n   * @return uint256 representing the amount owned by the passed address\n   */\n  function balanceOf(address _owner) public view returns (uint256) {\n    require(_owner != address(0));\n    return ownedTokensCount[_owner];\n  }\n\n  /**\n   * @dev Gets the owner of the specified token ID\n   * @param _tokenId uint256 ID of the token to query the owner of\n   * @return owner address currently marked as the owner of the given token ID\n   */\n  function ownerOf(uint256 _tokenId) public view returns (address) {\n    address owner = tokenOwner[_tokenId];\n    require(owner != address(0));\n    return owner;\n  }\n\n  /**\n   * @dev Returns whether the specified token exists\n   * @param _tokenId uint256 ID of the token to query the existence of\n   * @return whether the token exists\n   */\n  function exists(uint256 _tokenId) public view returns (bool) {\n    address owner = tokenOwner[_tokenId];\n    return owner != address(0);\n  }\n\n  /**\n   * @dev Approves another address to transfer the given token ID\n   * The zero address indicates there is no approved address.\n   * There can only be one approved address per token at a given time.\n   * Can only be called by the token owner or an approved operator.\n   * @param _to address to be approved for the given token ID\n   * @param _tokenId uint256 ID of the token to be approved\n   */\n  function approve(address _to, uint256 _tokenId) public {\n    address owner = ownerOf(_tokenId);\n    require(_to != owner);\n    require(msg.sender == owner || isApprovedForAll(owner, msg.sender));\n\n    tokenApprovals[_tokenId] = _to;\n    emit Approval(owner, _to, _tokenId);\n  }\n\n  /**\n   * @dev Gets the approved address for a token ID, or zero if no address set\n   * @param _tokenId uint256 ID of the token to query the approval of\n   * @return address currently approved for the given token ID\n   */\n  function getApproved(uint256 _tokenId) public view returns (address) {\n    return tokenApprovals[_tokenId];\n  }\n\n  /**\n   * @dev Sets or unsets the approval of a given operator\n   * An operator is allowed to transfer all tokens of the sender on their behalf\n   * @param _to operator address to set the approval\n   * @param _approved representing the status of the approval to be set\n   */\n  function setApprovalForAll(address _to, bool _approved) public {\n    require(_to != msg.sender);\n    operatorApprovals[msg.sender][_to] = _approved;\n    emit ApprovalForAll(msg.sender, _to, _approved);\n  }\n\n  /**\n   * @dev Tells whether an operator is approved by a given owner\n   * @param _owner owner address which you want to query the approval of\n   * @param _operator operator address which you want to query the approval of\n   * @return bool whether the given operator is approved by the given owner\n   */\n  function isApprovedForAll(\n    address _owner,\n    address _operator\n  )\n    public\n    view\n    returns (bool)\n  {\n    return operatorApprovals[_owner][_operator];\n  }\n\n  /**\n   * @dev Transfers the ownership of a given token ID to another address\n   * Usage of this method is discouraged, use `safeTransferFrom` whenever possible\n   * Requires the msg sender to be the owner, approved, or operator\n   * @param _from current owner of the token\n   * @param _to address to receive the ownership of the given token ID\n   * @param _tokenId uint256 ID of the token to be transferred\n  */\n  function transferFrom(\n    address _from,\n    address _to,\n    uint256 _tokenId\n  )\n    public\n    canTransfer(_tokenId)\n  {\n    require(_from != address(0));\n    require(_to != address(0));\n\n    clearApproval(_from, _tokenId);\n    removeTokenFrom(_from, _tokenId);\n    addTokenTo(_to, _tokenId);\n\n    emit Transfer(_from, _to, _tokenId);\n  }\n\n  /**\n   * @dev Safely transfers the ownership of a given token ID to another address\n   * If the target address is a contract, it must implement `onERC721Received`,\n   * which is called upon a safe transfer, and return the magic value\n   * `bytes4(keccak256(\"onERC721Received(address,uint256,bytes)\"))`; otherwise,\n   * the transfer is reverted.\n   *\n   * Requires the msg sender to be the owner, approved, or operator\n   * @param _from current owner of the token\n   * @param _to address to receive the ownership of the given token ID\n   * @param _tokenId uint256 ID of the token to be transferred\n  */\n  function safeTransferFrom(\n    address _from,\n    address _to,\n    uint256 _tokenId\n  )\n    public\n    canTransfer(_tokenId)\n  {\n    // solium-disable-next-line arg-overflow\n    safeTransferFrom(_from, _to, _tokenId, \"\");\n  }\n\n  /**\n   * @dev Safely transfers the ownership of a given token ID to another address\n   * If the target address is a contract, it must implement `onERC721Received`,\n   * which is called upon a safe transfer, and return the magic value\n   * `bytes4(keccak256(\"onERC721Received(address,uint256,bytes)\"))`; otherwise,\n   * the transfer is reverted.\n   * Requires the msg sender to be the owner, approved, or operator\n   * @param _from current owner of the token\n   * @param _to address to receive the ownership of the given token ID\n   * @param _tokenId uint256 ID of the token to be transferred\n   * @param _data bytes data to send along with a safe transfer check\n   */\n  function safeTransferFrom(\n    address _from,\n    address _to,\n    uint256 _tokenId,\n    bytes memory _data\n  )\n    public\n    canTransfer(_tokenId)\n  {\n    transferFrom(_from, _to, _tokenId);\n    // solium-disable-next-line arg-overflow\n    require(checkAndCallSafeTransfer(_from, _to, _tokenId, _data));\n  }\n\n  /**\n   * @dev Returns whether the given spender can transfer a given token ID\n   * @param _spender address of the spender to query\n   * @param _tokenId uint256 ID of the token to be transferred\n   * @return bool whether the msg.sender is approved for the given token ID,\n   *  is an operator of the owner, or is the owner of the token\n   */\n  function isApprovedOrOwner(\n    address _spender,\n    uint256 _tokenId\n  )\n    internal\n    view\n    returns (bool)\n  {\n    address owner = ownerOf(_tokenId);\n    // Disable solium check because of\n    // https://github.com/duaraghav8/Solium/issues/175\n    // solium-disable-next-line operator-whitespace\n    return (\n      _spender == owner ||\n      getApproved(_tokenId) == _spender ||\n      isApprovedForAll(owner, _spender)\n    );\n  }\n\n  /**\n   * @dev Internal function to mint a new token\n   * Reverts if the given token ID already exists\n   * @param _to The address that will own the minted token\n   * @param _tokenId uint256 ID of the token to be minted by the msg.sender\n   */\n  function _mint(address _to, uint256 _tokenId) internal {\n    require(_to != address(0));\n    addTokenTo(_to, _tokenId);\n    emit Transfer(address(0), _to, _tokenId);\n  }\n\n  /**\n   * @dev Internal function to burn a specific token\n   * Reverts if the token does not exist\n   * @param _tokenId uint256 ID of the token being burned by the msg.sender\n   */\n  function _burn(address _owner, uint256 _tokenId) internal {\n    clearApproval(_owner, _tokenId);\n    removeTokenFrom(_owner, _tokenId);\n    emit Transfer(_owner, address(0), _tokenId);\n  }\n\n  /**\n   * @dev Internal function to clear current approval of a given token ID\n   * Reverts if the given address is not indeed the owner of the token\n   * @param _owner owner of the token\n   * @param _tokenId uint256 ID of the token to be transferred\n   */\n  function clearApproval(address _owner, uint256 _tokenId) internal {\n    require(ownerOf(_tokenId) == _owner);\n    if (tokenApprovals[_tokenId] != address(0)) {\n      tokenApprovals[_tokenId] = address(0);\n    }\n  }\n\n  /**\n   * @dev Internal function to add a token ID to the list of a given address\n   * @param _to address representing the new owner of the given token ID\n   * @param _tokenId uint256 ID of the token to be added to the tokens list of the given address\n   */\n  function addTokenTo(address _to, uint256 _tokenId) internal {\n    require(tokenOwner[_tokenId] == address(0));\n    tokenOwner[_tokenId] = _to;\n    ownedTokensCount[_to] = ownedTokensCount[_to].add(1);\n  }\n\n  /**\n   * @dev Internal function to remove a token ID from the list of a given address\n   * @param _from address representing the previous owner of the given token ID\n   * @param _tokenId uint256 ID of the token to be removed from the tokens list of the given address\n   */\n  function removeTokenFrom(address _from, uint256 _tokenId) internal {\n    require(ownerOf(_tokenId) == _from);\n    ownedTokensCount[_from] = ownedTokensCount[_from].sub(1);\n    tokenOwner[_tokenId] = address(0);\n  }\n\n  /**\n   * @dev Internal function to invoke `onERC721Received` on a target address\n   * The call is not executed if the target address is not a contract\n   * @param _from address representing the previous owner of the given token ID\n   * @param _to target address that will receive the tokens\n   * @param _tokenId uint256 ID of the token to be transferred\n   * @param _data bytes optional data to send along with the call\n   * @return whether the call correctly returned the expected magic value\n   */\n  function checkAndCallSafeTransfer(\n    address _from,\n    address _to,\n    uint256 _tokenId,\n    bytes memory _data\n  )\n    internal\n    returns (bool)\n  {\n    if (!_to.isContract()) {\n      return true;\n    }\n    bytes4 retval = ERC721Receiver(_to).onERC721Received(\n      _from, _tokenId, _data);\n    return (retval == ERC721_RECEIVED);\n  }\n}\n\ncontract ERC721BasicTokenMock is ERC721BasicToken {\n  function mint(address _to, uint256 _tokenId) public {\n    super._mint(_to, _tokenId);\n  }\n\n  function burn(uint256 _tokenId) public {\n    super._burn(ownerOf(_tokenId), _tokenId);\n  }\n}\n",
  "sourcePath": "/home/hayek/proj/bounties/contracts/inherited/ERC721Basic.sol",
  "compiler": {
    "name": "solc",
    "version": "0.5.16+commit.9c3226ce.Emscripten.clang"
  },
  "schemaVersion": "3.3.2",
  "updatedAt": "2020-12-02T17:05:40.059Z",
  "devdoc": {
    "author": "Matt Condon (@shrugs)",
    "details": "Implements ERC165 using a lookup table.",
    "methods": {
      "constructor": {
        "details": "A contract implementing SupportsInterfaceWithLookup implement ERC165 itself"
      },
      "supportsInterface(bytes4)": {
        "details": "implement supportsInterface(bytes4) using a lookup table"
      }
    },
    "title": "SupportsInterfaceWithLookup"
  },
  "userdoc": {
    "methods": {}
  }
}